{
  "contractName": "FamilyTree",
  "abi": [
    {
      "constant": false,
      "inputs": [
        {
          "internalType": "string",
          "name": "ffirstname",
          "type": "string"
        },
        {
          "internalType": "string",
          "name": "flastname",
          "type": "string"
        },
        {
          "internalType": "string",
          "name": "mfirstname",
          "type": "string"
        },
        {
          "internalType": "string",
          "name": "mlastname",
          "type": "string"
        },
        {
          "internalType": "string",
          "name": "c1firstname",
          "type": "string"
        },
        {
          "internalType": "string",
          "name": "c1lastname",
          "type": "string"
        },
        {
          "internalType": "string",
          "name": "c2firstname",
          "type": "string"
        },
        {
          "internalType": "string",
          "name": "c2lastname",
          "type": "string"
        },
        {
          "internalType": "string",
          "name": "Famliyname",
          "type": "string"
        }
      ],
      "name": "create_family",
      "outputs": [],
      "payable": false,
      "stateMutability": "nonpayable",
      "type": "function"
    },
    {
      "constant": true,
      "inputs": [],
      "name": "get_Family_Number",
      "outputs": [
        {
          "internalType": "int256",
          "name": "familynum",
          "type": "int256"
        }
      ],
      "payable": false,
      "stateMutability": "view",
      "type": "function"
    },
    {
      "constant": true,
      "inputs": [
        {
          "internalType": "int256",
          "name": "familynum",
          "type": "int256"
        }
      ],
      "name": "print_Father_First_Name",
      "outputs": [
        {
          "internalType": "string",
          "name": "firstname",
          "type": "string"
        }
      ],
      "payable": false,
      "stateMutability": "view",
      "type": "function"
    },
    {
      "constant": true,
      "inputs": [
        {
          "internalType": "int256",
          "name": "familynum",
          "type": "int256"
        }
      ],
      "name": "print_Father_Last_Name",
      "outputs": [
        {
          "internalType": "string",
          "name": "lastname",
          "type": "string"
        }
      ],
      "payable": false,
      "stateMutability": "view",
      "type": "function"
    },
    {
      "constant": true,
      "inputs": [
        {
          "internalType": "int256",
          "name": "familynum",
          "type": "int256"
        }
      ],
      "name": "print_Mother_First_Name",
      "outputs": [
        {
          "internalType": "string",
          "name": "firstname",
          "type": "string"
        }
      ],
      "payable": false,
      "stateMutability": "view",
      "type": "function"
    },
    {
      "constant": true,
      "inputs": [
        {
          "internalType": "int256",
          "name": "familynum",
          "type": "int256"
        }
      ],
      "name": "print_Mother_Last_Name",
      "outputs": [
        {
          "internalType": "string",
          "name": "lastname",
          "type": "string"
        }
      ],
      "payable": false,
      "stateMutability": "view",
      "type": "function"
    },
    {
      "constant": true,
      "inputs": [
        {
          "internalType": "int256",
          "name": "familynum",
          "type": "int256"
        }
      ],
      "name": "print_Child1_First_Name",
      "outputs": [
        {
          "internalType": "string",
          "name": "firstname",
          "type": "string"
        }
      ],
      "payable": false,
      "stateMutability": "view",
      "type": "function"
    },
    {
      "constant": true,
      "inputs": [
        {
          "internalType": "int256",
          "name": "familynum",
          "type": "int256"
        }
      ],
      "name": "print_Child1_Last_Name",
      "outputs": [
        {
          "internalType": "string",
          "name": "lastname",
          "type": "string"
        }
      ],
      "payable": false,
      "stateMutability": "view",
      "type": "function"
    },
    {
      "constant": true,
      "inputs": [
        {
          "internalType": "int256",
          "name": "familynum",
          "type": "int256"
        }
      ],
      "name": "print_Child2_First_Name",
      "outputs": [
        {
          "internalType": "string",
          "name": "firstname",
          "type": "string"
        }
      ],
      "payable": false,
      "stateMutability": "view",
      "type": "function"
    },
    {
      "constant": true,
      "inputs": [
        {
          "internalType": "int256",
          "name": "familynum",
          "type": "int256"
        }
      ],
      "name": "print_Child2_Last_Name",
      "outputs": [
        {
          "internalType": "string",
          "name": "lastname",
          "type": "string"
        }
      ],
      "payable": false,
      "stateMutability": "view",
      "type": "function"
    },
    {
      "constant": true,
      "inputs": [],
      "name": "print1",
      "outputs": [
        {
          "internalType": "string",
          "name": "",
          "type": "string"
        }
      ],
      "payable": false,
      "stateMutability": "pure",
      "type": "function"
    },
    {
      "constant": true,
      "inputs": [
        {
          "internalType": "int256",
          "name": "familynum",
          "type": "int256"
        }
      ],
      "name": "print_Family_Name",
      "outputs": [
        {
          "internalType": "string",
          "name": "firstname",
          "type": "string"
        }
      ],
      "payable": false,
      "stateMutability": "view",
      "type": "function"
    }
  ],
  "bytecode": "0x60806040526000600155600060035534801561001a57600080fd5b506149548061002a6000396000f3fe608060405234801561001057600080fd5b50600436106100b45760003560e01c8063d6a8833911610071578063d6a883391461094c578063d8ef4303146109f3578063e0c729ea14610a11578063e71fafc914610ab8578063edafa08e14610b5f578063fad301c414610c06576100b4565b80630949abd1146100b95780634bfd4f3b1461062d57806351f32956146106d45780635dc60acc1461077b578063b1789d6014610822578063c55cd61e146108c9575b600080fd5b61062b60048036036101208110156100d057600080fd5b81019080803590602001906401000000008111156100ed57600080fd5b8201836020820111156100ff57600080fd5b8035906020019184600183028401116401000000008311171561012157600080fd5b91908080601f016020809104026020016040519081016040528093929190818152602001838380828437600081840152601f19601f8201169050808301925050505050505091929192908035906020019064010000000081111561018457600080fd5b82018360208201111561019657600080fd5b803590602001918460018302840111640100000000831117156101b857600080fd5b91908080601f016020809104026020016040519081016040528093929190818152602001838380828437600081840152601f19601f8201169050808301925050505050505091929192908035906020019064010000000081111561021b57600080fd5b82018360208201111561022d57600080fd5b8035906020019184600183028401116401000000008311171561024f57600080fd5b91908080601f016020809104026020016040519081016040528093929190818152602001838380828437600081840152601f19601f820116905080830192505050505050509192919290803590602001906401000000008111156102b257600080fd5b8201836020820111156102c457600080fd5b803590602001918460018302840111640100000000831117156102e657600080fd5b91908080601f016020809104026020016040519081016040528093929190818152602001838380828437600081840152601f19601f8201169050808301925050505050505091929192908035906020019064010000000081111561034957600080fd5b82018360208201111561035b57600080fd5b8035906020019184600183028401116401000000008311171561037d57600080fd5b91908080601f016020809104026020016040519081016040528093929190818152602001838380828437600081840152601f19601f820116905080830192505050505050509192919290803590602001906401000000008111156103e057600080fd5b8201836020820111156103f257600080fd5b8035906020019184600183028401116401000000008311171561041457600080fd5b91908080601f016020809104026020016040519081016040528093929190818152602001838380828437600081840152601f19601f8201169050808301925050505050505091929192908035906020019064010000000081111561047757600080fd5b82018360208201111561048957600080fd5b803590602001918460018302840111640100000000831117156104ab57600080fd5b91908080601f016020809104026020016040519081016040528093929190818152602001838380828437600081840152601f19601f8201169050808301925050505050505091929192908035906020019064010000000081111561050e57600080fd5b82018360208201111561052057600080fd5b8035906020019184600183028401116401000000008311171561054257600080fd5b91908080601f016020809104026020016040519081016040528093929190818152602001838380828437600081840152601f19601f820116905080830192505050505050509192919290803590602001906401000000008111156105a557600080fd5b8201836020820111156105b757600080fd5b803590602001918460018302840111640100000000831117156105d957600080fd5b91908080601f016020809104026020016040519081016040528093929190818152602001838380828437600081840152601f19601f820116905080830192505050505050509192919290505050610cad565b005b6106596004803603602081101561064357600080fd5b8101908080359060200190929190505050610f36565b6040518080602001828103825283818151815260200191508051906020019080838360005b8381101561069957808201518184015260208101905061067e565b50505050905090810190601f1680156106c65780820380516001836020036101000a031916815260200191505b509250505060405180910390f35b610700600480360360208110156106ea57600080fd5b810190808035906020019092919050505061157d565b6040518080602001828103825283818151815260200191508051906020019080838360005b83811015610740578082015181840152602081019050610725565b50505050905090810190601f16801561076d5780820380516001836020036101000a031916815260200191505b509250505060405180910390f35b6107a76004803603602081101561079157600080fd5b8101908080359060200190929190505050611bc4565b6040518080602001828103825283818151815260200191508051906020019080838360005b838110156107e75780820151818401526020810190506107cc565b50505050905090810190601f1680156108145780820380516001836020036101000a031916815260200191505b509250505060405180910390f35b61084e6004803603602081101561083857600080fd5b810190808035906020019092919050505061220b565b6040518080602001828103825283818151815260200191508051906020019080838360005b8381101561088e578082015181840152602081019050610873565b50505050905090810190601f1680156108bb5780820380516001836020036101000a031916815260200191505b509250505060405180910390f35b6108d1612852565b6040518080602001828103825283818151815260200191508051906020019080838360005b838110156109115780820151818401526020810190506108f6565b50505050905090810190601f16801561093e5780820380516001836020036101000a031916815260200191505b509250505060405180910390f35b6109786004803603602081101561096257600080fd5b810190808035906020019092919050505061288f565b6040518080602001828103825283818151815260200191508051906020019080838360005b838110156109b857808201518184015260208101905061099d565b50505050905090810190601f1680156109e55780820380516001836020036101000a031916815260200191505b509250505060405180910390f35b6109fb612ed6565b6040518082815260200191505060405180910390f35b610a3d60048036036020811015610a2757600080fd5b8101908080359060200190929190505050612ee0565b6040518080602001828103825283818151815260200191508051906020019080838360005b83811015610a7d578082015181840152602081019050610a62565b50505050905090810190601f168015610aaa5780820380516001836020036101000a031916815260200191505b509250505060405180910390f35b610ae460048036036020811015610ace57600080fd5b8101908080359060200190929190505050613527565b6040518080602001828103825283818151815260200191508051906020019080838360005b83811015610b24578082015181840152602081019050610b09565b50505050905090810190601f168015610b515780820380516001836020036101000a031916815260200191505b509250505060405180910390f35b610b8b60048036036020811015610b7557600080fd5b8101908080359060200190929190505050613b6e565b6040518080602001828103825283818151815260200191508051906020019080838360005b83811015610bcb578082015181840152602081019050610bb0565b50505050905090810190601f168015610bf85780820380516001836020036101000a031916815260200191505b509250505060405180910390f35b610c3260048036036020811015610c1c57600080fd5b81019080803590602001909291905050506141b5565b6040518080602001828103825283818151815260200191508051906020019080838360005b83811015610c72578082015181840152602081019050610c57565b50505050905090810190601f168015610c9f5780820380516001836020036101000a031916815260200191505b509250505060405180910390f35b336000806101000a81548173ffffffffffffffffffffffffffffffffffffffff021916908373ffffffffffffffffffffffffffffffffffffffff16021790555060006003541315610d0b576001600081548092919060010191905055505b610d136147f8565b60405180604001604052808b81526020018a8152509050610d326147f8565b60405180604001604052808a8152602001898152509050610d516147f8565b6040518060400160405280898152602001888152509050610d706147f8565b6040518060400160405280888152602001878152509050610d8f614812565b6040518060c001604052808681526020018581526020018481526020018381526020016001548152602001878152509050806002600060015481526020019081526020016000206000820151816000016000820151816000019080519060200190610dfb929190614860565b506020820151816001019080519060200190610e18929190614860565b5050506020820151816002016000820151816000019080519060200190610e40929190614860565b506020820151816001019080519060200190610e5d929190614860565b5050506040820151816004016000820151816000019080519060200190610e85929190614860565b506020820151816001019080519060200190610ea2929190614860565b5050506060820151816006016000820151816000019080519060200190610eca929190614860565b506020820151816001019080519060200190610ee7929190614860565b5050506080820151816008015560a0820151816009019080519060200190610f10929190614860565b509050506003600081548092919060010191905055505050505050505050505050505050565b6060610f40614812565b600260008481526020019081526020016000206040518060c001604052908160008201604051806040016040529081600082018054600181600116156101000203166002900480601f0160208091040260200160405190810160405280929190818152602001828054600181600116156101000203166002900480156110075780601f10610fdc57610100808354040283529160200191611007565b820191906000526020600020905b815481529060010190602001808311610fea57829003601f168201915b50505050508152602001600182018054600181600116156101000203166002900480601f0160208091040260200160405190810160405280929190818152602001828054600181600116156101000203166002900480156110a95780601f1061107e576101008083540402835291602001916110a9565b820191906000526020600020905b81548152906001019060200180831161108c57829003601f168201915b505050505081525050815260200160028201604051806040016040529081600082018054600181600116156101000203166002900480601f01602080910402602001604051908101604052809291908181526020018280546001816001161561010002031660029004801561115f5780601f106111345761010080835404028352916020019161115f565b820191906000526020600020905b81548152906001019060200180831161114257829003601f168201915b50505050508152602001600182018054600181600116156101000203166002900480601f0160208091040260200160405190810160405280929190818152602001828054600181600116156101000203166002900480156112015780601f106111d657610100808354040283529160200191611201565b820191906000526020600020905b8154815290600101906020018083116111e457829003601f168201915b505050505081525050815260200160048201604051806040016040529081600082018054600181600116156101000203166002900480601f0160208091040260200160405190810160405280929190818152602001828054600181600116156101000203166002900480156112b75780601f1061128c576101008083540402835291602001916112b7565b820191906000526020600020905b81548152906001019060200180831161129a57829003601f168201915b50505050508152602001600182018054600181600116156101000203166002900480601f0160208091040260200160405190810160405280929190818152602001828054600181600116156101000203166002900480156113595780601f1061132e57610100808354040283529160200191611359565b820191906000526020600020905b81548152906001019060200180831161133c57829003601f168201915b505050505081525050815260200160068201604051806040016040529081600082018054600181600116156101000203166002900480601f01602080910402602001604051908101604052809291908181526020018280546001816001161561010002031660029004801561140f5780601f106113e45761010080835404028352916020019161140f565b820191906000526020600020905b8154815290600101906020018083116113f257829003601f168201915b50505050508152602001600182018054600181600116156101000203166002900480601f0160208091040260200160405190810160405280929190818152602001828054600181600116156101000203166002900480156114b15780601f10611486576101008083540402835291602001916114b1565b820191906000526020600020905b81548152906001019060200180831161149457829003601f168201915b505050505081525050815260200160088201548152602001600982018054600181600116156101000203166002900480601f0160208091040260200160405190810160405280929190818152602001828054600181600116156101000203166002900480156115615780601f1061153657610100808354040283529160200191611561565b820191906000526020600020905b81548152906001019060200180831161154457829003601f168201915b5050505050815250509050806040015160000151915050919050565b6060611587614812565b600260008481526020019081526020016000206040518060c001604052908160008201604051806040016040529081600082018054600181600116156101000203166002900480601f01602080910402602001604051908101604052809291908181526020018280546001816001161561010002031660029004801561164e5780601f106116235761010080835404028352916020019161164e565b820191906000526020600020905b81548152906001019060200180831161163157829003601f168201915b50505050508152602001600182018054600181600116156101000203166002900480601f0160208091040260200160405190810160405280929190818152602001828054600181600116156101000203166002900480156116f05780601f106116c5576101008083540402835291602001916116f0565b820191906000526020600020905b8154815290600101906020018083116116d357829003601f168201915b505050505081525050815260200160028201604051806040016040529081600082018054600181600116156101000203166002900480601f0160208091040260200160405190810160405280929190818152602001828054600181600116156101000203166002900480156117a65780601f1061177b576101008083540402835291602001916117a6565b820191906000526020600020905b81548152906001019060200180831161178957829003601f168201915b50505050508152602001600182018054600181600116156101000203166002900480601f0160208091040260200160405190810160405280929190818152602001828054600181600116156101000203166002900480156118485780601f1061181d57610100808354040283529160200191611848565b820191906000526020600020905b81548152906001019060200180831161182b57829003601f168201915b505050505081525050815260200160048201604051806040016040529081600082018054600181600116156101000203166002900480601f0160208091040260200160405190810160405280929190818152602001828054600181600116156101000203166002900480156118fe5780601f106118d3576101008083540402835291602001916118fe565b820191906000526020600020905b8154815290600101906020018083116118e157829003601f168201915b50505050508152602001600182018054600181600116156101000203166002900480601f0160208091040260200160405190810160405280929190818152602001828054600181600116156101000203166002900480156119a05780601f10611975576101008083540402835291602001916119a0565b820191906000526020600020905b81548152906001019060200180831161198357829003601f168201915b505050505081525050815260200160068201604051806040016040529081600082018054600181600116156101000203166002900480601f016020809104026020016040519081016040528092919081815260200182805460018160011615610100020316600290048015611a565780601f10611a2b57610100808354040283529160200191611a56565b820191906000526020600020905b815481529060010190602001808311611a3957829003601f168201915b50505050508152602001600182018054600181600116156101000203166002900480601f016020809104026020016040519081016040528092919081815260200182805460018160011615610100020316600290048015611af85780601f10611acd57610100808354040283529160200191611af8565b820191906000526020600020905b815481529060010190602001808311611adb57829003601f168201915b505050505081525050815260200160088201548152602001600982018054600181600116156101000203166002900480601f016020809104026020016040519081016040528092919081815260200182805460018160011615610100020316600290048015611ba85780601f10611b7d57610100808354040283529160200191611ba8565b820191906000526020600020905b815481529060010190602001808311611b8b57829003601f168201915b5050505050815250509050806020015160200151915050919050565b6060611bce614812565b600260008481526020019081526020016000206040518060c001604052908160008201604051806040016040529081600082018054600181600116156101000203166002900480601f016020809104026020016040519081016040528092919081815260200182805460018160011615610100020316600290048015611c955780601f10611c6a57610100808354040283529160200191611c95565b820191906000526020600020905b815481529060010190602001808311611c7857829003601f168201915b50505050508152602001600182018054600181600116156101000203166002900480601f016020809104026020016040519081016040528092919081815260200182805460018160011615610100020316600290048015611d375780601f10611d0c57610100808354040283529160200191611d37565b820191906000526020600020905b815481529060010190602001808311611d1a57829003601f168201915b505050505081525050815260200160028201604051806040016040529081600082018054600181600116156101000203166002900480601f016020809104026020016040519081016040528092919081815260200182805460018160011615610100020316600290048015611ded5780601f10611dc257610100808354040283529160200191611ded565b820191906000526020600020905b815481529060010190602001808311611dd057829003601f168201915b50505050508152602001600182018054600181600116156101000203166002900480601f016020809104026020016040519081016040528092919081815260200182805460018160011615610100020316600290048015611e8f5780601f10611e6457610100808354040283529160200191611e8f565b820191906000526020600020905b815481529060010190602001808311611e7257829003601f168201915b505050505081525050815260200160048201604051806040016040529081600082018054600181600116156101000203166002900480601f016020809104026020016040519081016040528092919081815260200182805460018160011615610100020316600290048015611f455780601f10611f1a57610100808354040283529160200191611f45565b820191906000526020600020905b815481529060010190602001808311611f2857829003601f168201915b50505050508152602001600182018054600181600116156101000203166002900480601f016020809104026020016040519081016040528092919081815260200182805460018160011615610100020316600290048015611fe75780601f10611fbc57610100808354040283529160200191611fe7565b820191906000526020600020905b815481529060010190602001808311611fca57829003601f168201915b505050505081525050815260200160068201604051806040016040529081600082018054600181600116156101000203166002900480601f01602080910402602001604051908101604052809291908181526020018280546001816001161561010002031660029004801561209d5780601f106120725761010080835404028352916020019161209d565b820191906000526020600020905b81548152906001019060200180831161208057829003601f168201915b50505050508152602001600182018054600181600116156101000203166002900480601f01602080910402602001604051908101604052809291908181526020018280546001816001161561010002031660029004801561213f5780601f106121145761010080835404028352916020019161213f565b820191906000526020600020905b81548152906001019060200180831161212257829003601f168201915b505050505081525050815260200160088201548152602001600982018054600181600116156101000203166002900480601f0160208091040260200160405190810160405280929190818152602001828054600181600116156101000203166002900480156121ef5780601f106121c4576101008083540402835291602001916121ef565b820191906000526020600020905b8154815290600101906020018083116121d257829003601f168201915b5050505050815250509050806020015160000151915050919050565b6060612215614812565b600260008481526020019081526020016000206040518060c001604052908160008201604051806040016040529081600082018054600181600116156101000203166002900480601f0160208091040260200160405190810160405280929190818152602001828054600181600116156101000203166002900480156122dc5780601f106122b1576101008083540402835291602001916122dc565b820191906000526020600020905b8154815290600101906020018083116122bf57829003601f168201915b50505050508152602001600182018054600181600116156101000203166002900480601f01602080910402602001604051908101604052809291908181526020018280546001816001161561010002031660029004801561237e5780601f106123535761010080835404028352916020019161237e565b820191906000526020600020905b81548152906001019060200180831161236157829003601f168201915b505050505081525050815260200160028201604051806040016040529081600082018054600181600116156101000203166002900480601f0160208091040260200160405190810160405280929190818152602001828054600181600116156101000203166002900480156124345780601f1061240957610100808354040283529160200191612434565b820191906000526020600020905b81548152906001019060200180831161241757829003601f168201915b50505050508152602001600182018054600181600116156101000203166002900480601f0160208091040260200160405190810160405280929190818152602001828054600181600116156101000203166002900480156124d65780601f106124ab576101008083540402835291602001916124d6565b820191906000526020600020905b8154815290600101906020018083116124b957829003601f168201915b505050505081525050815260200160048201604051806040016040529081600082018054600181600116156101000203166002900480601f01602080910402602001604051908101604052809291908181526020018280546001816001161561010002031660029004801561258c5780601f106125615761010080835404028352916020019161258c565b820191906000526020600020905b81548152906001019060200180831161256f57829003601f168201915b50505050508152602001600182018054600181600116156101000203166002900480601f01602080910402602001604051908101604052809291908181526020018280546001816001161561010002031660029004801561262e5780601f106126035761010080835404028352916020019161262e565b820191906000526020600020905b81548152906001019060200180831161261157829003601f168201915b505050505081525050815260200160068201604051806040016040529081600082018054600181600116156101000203166002900480601f0160208091040260200160405190810160405280929190818152602001828054600181600116156101000203166002900480156126e45780601f106126b9576101008083540402835291602001916126e4565b820191906000526020600020905b8154815290600101906020018083116126c757829003601f168201915b50505050508152602001600182018054600181600116156101000203166002900480601f0160208091040260200160405190810160405280929190818152602001828054600181600116156101000203166002900480156127865780601f1061275b57610100808354040283529160200191612786565b820191906000526020600020905b81548152906001019060200180831161276957829003601f168201915b505050505081525050815260200160088201548152602001600982018054600181600116156101000203166002900480601f0160208091040260200160405190810160405280929190818152602001828054600181600116156101000203166002900480156128365780601f1061280b57610100808354040283529160200191612836565b820191906000526020600020905b81548152906001019060200180831161281957829003601f168201915b5050505050815250509050806060015160200151915050919050565b60606040518060400160405280600581526020017f68656c6c6f000000000000000000000000000000000000000000000000000000815250905090565b6060612899614812565b600260008481526020019081526020016000206040518060c001604052908160008201604051806040016040529081600082018054600181600116156101000203166002900480601f0160208091040260200160405190810160405280929190818152602001828054600181600116156101000203166002900480156129605780601f1061293557610100808354040283529160200191612960565b820191906000526020600020905b81548152906001019060200180831161294357829003601f168201915b50505050508152602001600182018054600181600116156101000203166002900480601f016020809104026020016040519081016040528092919081815260200182805460018160011615610100020316600290048015612a025780601f106129d757610100808354040283529160200191612a02565b820191906000526020600020905b8154815290600101906020018083116129e557829003601f168201915b505050505081525050815260200160028201604051806040016040529081600082018054600181600116156101000203166002900480601f016020809104026020016040519081016040528092919081815260200182805460018160011615610100020316600290048015612ab85780601f10612a8d57610100808354040283529160200191612ab8565b820191906000526020600020905b815481529060010190602001808311612a9b57829003601f168201915b50505050508152602001600182018054600181600116156101000203166002900480601f016020809104026020016040519081016040528092919081815260200182805460018160011615610100020316600290048015612b5a5780601f10612b2f57610100808354040283529160200191612b5a565b820191906000526020600020905b815481529060010190602001808311612b3d57829003601f168201915b505050505081525050815260200160048201604051806040016040529081600082018054600181600116156101000203166002900480601f016020809104026020016040519081016040528092919081815260200182805460018160011615610100020316600290048015612c105780601f10612be557610100808354040283529160200191612c10565b820191906000526020600020905b815481529060010190602001808311612bf357829003601f168201915b50505050508152602001600182018054600181600116156101000203166002900480601f016020809104026020016040519081016040528092919081815260200182805460018160011615610100020316600290048015612cb25780601f10612c8757610100808354040283529160200191612cb2565b820191906000526020600020905b815481529060010190602001808311612c9557829003601f168201915b505050505081525050815260200160068201604051806040016040529081600082018054600181600116156101000203166002900480601f016020809104026020016040519081016040528092919081815260200182805460018160011615610100020316600290048015612d685780601f10612d3d57610100808354040283529160200191612d68565b820191906000526020600020905b815481529060010190602001808311612d4b57829003601f168201915b50505050508152602001600182018054600181600116156101000203166002900480601f016020809104026020016040519081016040528092919081815260200182805460018160011615610100020316600290048015612e0a5780601f10612ddf57610100808354040283529160200191612e0a565b820191906000526020600020905b815481529060010190602001808311612ded57829003601f168201915b505050505081525050815260200160088201548152602001600982018054600181600116156101000203166002900480601f016020809104026020016040519081016040528092919081815260200182805460018160011615610100020316600290048015612eba5780601f10612e8f57610100808354040283529160200191612eba565b820191906000526020600020905b815481529060010190602001808311612e9d57829003601f168201915b5050505050815250509050806060015160000151915050919050565b6000600154905090565b6060612eea614812565b600260008481526020019081526020016000206040518060c001604052908160008201604051806040016040529081600082018054600181600116156101000203166002900480601f016020809104026020016040519081016040528092919081815260200182805460018160011615610100020316600290048015612fb15780601f10612f8657610100808354040283529160200191612fb1565b820191906000526020600020905b815481529060010190602001808311612f9457829003601f168201915b50505050508152602001600182018054600181600116156101000203166002900480601f0160208091040260200160405190810160405280929190818152602001828054600181600116156101000203166002900480156130535780601f1061302857610100808354040283529160200191613053565b820191906000526020600020905b81548152906001019060200180831161303657829003601f168201915b505050505081525050815260200160028201604051806040016040529081600082018054600181600116156101000203166002900480601f0160208091040260200160405190810160405280929190818152602001828054600181600116156101000203166002900480156131095780601f106130de57610100808354040283529160200191613109565b820191906000526020600020905b8154815290600101906020018083116130ec57829003601f168201915b50505050508152602001600182018054600181600116156101000203166002900480601f0160208091040260200160405190810160405280929190818152602001828054600181600116156101000203166002900480156131ab5780601f10613180576101008083540402835291602001916131ab565b820191906000526020600020905b81548152906001019060200180831161318e57829003601f168201915b505050505081525050815260200160048201604051806040016040529081600082018054600181600116156101000203166002900480601f0160208091040260200160405190810160405280929190818152602001828054600181600116156101000203166002900480156132615780601f1061323657610100808354040283529160200191613261565b820191906000526020600020905b81548152906001019060200180831161324457829003601f168201915b50505050508152602001600182018054600181600116156101000203166002900480601f0160208091040260200160405190810160405280929190818152602001828054600181600116156101000203166002900480156133035780601f106132d857610100808354040283529160200191613303565b820191906000526020600020905b8154815290600101906020018083116132e657829003601f168201915b505050505081525050815260200160068201604051806040016040529081600082018054600181600116156101000203166002900480601f0160208091040260200160405190810160405280929190818152602001828054600181600116156101000203166002900480156133b95780601f1061338e576101008083540402835291602001916133b9565b820191906000526020600020905b81548152906001019060200180831161339c57829003601f168201915b50505050508152602001600182018054600181600116156101000203166002900480601f01602080910402602001604051908101604052809291908181526020018280546001816001161561010002031660029004801561345b5780601f106134305761010080835404028352916020019161345b565b820191906000526020600020905b81548152906001019060200180831161343e57829003601f168201915b505050505081525050815260200160088201548152602001600982018054600181600116156101000203166002900480601f01602080910402602001604051908101604052809291908181526020018280546001816001161561010002031660029004801561350b5780601f106134e05761010080835404028352916020019161350b565b820191906000526020600020905b8154815290600101906020018083116134ee57829003601f168201915b5050505050815250509050806040015160200151915050919050565b6060613531614812565b600260008481526020019081526020016000206040518060c001604052908160008201604051806040016040529081600082018054600181600116156101000203166002900480601f0160208091040260200160405190810160405280929190818152602001828054600181600116156101000203166002900480156135f85780601f106135cd576101008083540402835291602001916135f8565b820191906000526020600020905b8154815290600101906020018083116135db57829003601f168201915b50505050508152602001600182018054600181600116156101000203166002900480601f01602080910402602001604051908101604052809291908181526020018280546001816001161561010002031660029004801561369a5780601f1061366f5761010080835404028352916020019161369a565b820191906000526020600020905b81548152906001019060200180831161367d57829003601f168201915b505050505081525050815260200160028201604051806040016040529081600082018054600181600116156101000203166002900480601f0160208091040260200160405190810160405280929190818152602001828054600181600116156101000203166002900480156137505780601f1061372557610100808354040283529160200191613750565b820191906000526020600020905b81548152906001019060200180831161373357829003601f168201915b50505050508152602001600182018054600181600116156101000203166002900480601f0160208091040260200160405190810160405280929190818152602001828054600181600116156101000203166002900480156137f25780601f106137c7576101008083540402835291602001916137f2565b820191906000526020600020905b8154815290600101906020018083116137d557829003601f168201915b505050505081525050815260200160048201604051806040016040529081600082018054600181600116156101000203166002900480601f0160208091040260200160405190810160405280929190818152602001828054600181600116156101000203166002900480156138a85780601f1061387d576101008083540402835291602001916138a8565b820191906000526020600020905b81548152906001019060200180831161388b57829003601f168201915b50505050508152602001600182018054600181600116156101000203166002900480601f01602080910402602001604051908101604052809291908181526020018280546001816001161561010002031660029004801561394a5780601f1061391f5761010080835404028352916020019161394a565b820191906000526020600020905b81548152906001019060200180831161392d57829003601f168201915b505050505081525050815260200160068201604051806040016040529081600082018054600181600116156101000203166002900480601f016020809104026020016040519081016040528092919081815260200182805460018160011615610100020316600290048015613a005780601f106139d557610100808354040283529160200191613a00565b820191906000526020600020905b8154815290600101906020018083116139e357829003601f168201915b50505050508152602001600182018054600181600116156101000203166002900480601f016020809104026020016040519081016040528092919081815260200182805460018160011615610100020316600290048015613aa25780601f10613a7757610100808354040283529160200191613aa2565b820191906000526020600020905b815481529060010190602001808311613a8557829003601f168201915b505050505081525050815260200160088201548152602001600982018054600181600116156101000203166002900480601f016020809104026020016040519081016040528092919081815260200182805460018160011615610100020316600290048015613b525780601f10613b2757610100808354040283529160200191613b52565b820191906000526020600020905b815481529060010190602001808311613b3557829003601f168201915b5050505050815250509050806000015160000151915050919050565b6060613b78614812565b600260008481526020019081526020016000206040518060c001604052908160008201604051806040016040529081600082018054600181600116156101000203166002900480601f016020809104026020016040519081016040528092919081815260200182805460018160011615610100020316600290048015613c3f5780601f10613c1457610100808354040283529160200191613c3f565b820191906000526020600020905b815481529060010190602001808311613c2257829003601f168201915b50505050508152602001600182018054600181600116156101000203166002900480601f016020809104026020016040519081016040528092919081815260200182805460018160011615610100020316600290048015613ce15780601f10613cb657610100808354040283529160200191613ce1565b820191906000526020600020905b815481529060010190602001808311613cc457829003601f168201915b505050505081525050815260200160028201604051806040016040529081600082018054600181600116156101000203166002900480601f016020809104026020016040519081016040528092919081815260200182805460018160011615610100020316600290048015613d975780601f10613d6c57610100808354040283529160200191613d97565b820191906000526020600020905b815481529060010190602001808311613d7a57829003601f168201915b50505050508152602001600182018054600181600116156101000203166002900480601f016020809104026020016040519081016040528092919081815260200182805460018160011615610100020316600290048015613e395780601f10613e0e57610100808354040283529160200191613e39565b820191906000526020600020905b815481529060010190602001808311613e1c57829003601f168201915b505050505081525050815260200160048201604051806040016040529081600082018054600181600116156101000203166002900480601f016020809104026020016040519081016040528092919081815260200182805460018160011615610100020316600290048015613eef5780601f10613ec457610100808354040283529160200191613eef565b820191906000526020600020905b815481529060010190602001808311613ed257829003601f168201915b50505050508152602001600182018054600181600116156101000203166002900480601f016020809104026020016040519081016040528092919081815260200182805460018160011615610100020316600290048015613f915780601f10613f6657610100808354040283529160200191613f91565b820191906000526020600020905b815481529060010190602001808311613f7457829003601f168201915b505050505081525050815260200160068201604051806040016040529081600082018054600181600116156101000203166002900480601f0160208091040260200160405190810160405280929190818152602001828054600181600116156101000203166002900480156140475780601f1061401c57610100808354040283529160200191614047565b820191906000526020600020905b81548152906001019060200180831161402a57829003601f168201915b50505050508152602001600182018054600181600116156101000203166002900480601f0160208091040260200160405190810160405280929190818152602001828054600181600116156101000203166002900480156140e95780601f106140be576101008083540402835291602001916140e9565b820191906000526020600020905b8154815290600101906020018083116140cc57829003601f168201915b505050505081525050815260200160088201548152602001600982018054600181600116156101000203166002900480601f0160208091040260200160405190810160405280929190818152602001828054600181600116156101000203166002900480156141995780601f1061416e57610100808354040283529160200191614199565b820191906000526020600020905b81548152906001019060200180831161417c57829003601f168201915b5050505050815250509050806000015160200151915050919050565b60606141bf614812565b600260008481526020019081526020016000206040518060c001604052908160008201604051806040016040529081600082018054600181600116156101000203166002900480601f0160208091040260200160405190810160405280929190818152602001828054600181600116156101000203166002900480156142865780601f1061425b57610100808354040283529160200191614286565b820191906000526020600020905b81548152906001019060200180831161426957829003601f168201915b50505050508152602001600182018054600181600116156101000203166002900480601f0160208091040260200160405190810160405280929190818152602001828054600181600116156101000203166002900480156143285780601f106142fd57610100808354040283529160200191614328565b820191906000526020600020905b81548152906001019060200180831161430b57829003601f168201915b505050505081525050815260200160028201604051806040016040529081600082018054600181600116156101000203166002900480601f0160208091040260200160405190810160405280929190818152602001828054600181600116156101000203166002900480156143de5780601f106143b3576101008083540402835291602001916143de565b820191906000526020600020905b8154815290600101906020018083116143c157829003601f168201915b50505050508152602001600182018054600181600116156101000203166002900480601f0160208091040260200160405190810160405280929190818152602001828054600181600116156101000203166002900480156144805780601f1061445557610100808354040283529160200191614480565b820191906000526020600020905b81548152906001019060200180831161446357829003601f168201915b505050505081525050815260200160048201604051806040016040529081600082018054600181600116156101000203166002900480601f0160208091040260200160405190810160405280929190818152602001828054600181600116156101000203166002900480156145365780601f1061450b57610100808354040283529160200191614536565b820191906000526020600020905b81548152906001019060200180831161451957829003601f168201915b50505050508152602001600182018054600181600116156101000203166002900480601f0160208091040260200160405190810160405280929190818152602001828054600181600116156101000203166002900480156145d85780601f106145ad576101008083540402835291602001916145d8565b820191906000526020600020905b8154815290600101906020018083116145bb57829003601f168201915b505050505081525050815260200160068201604051806040016040529081600082018054600181600116156101000203166002900480601f01602080910402602001604051908101604052809291908181526020018280546001816001161561010002031660029004801561468e5780601f106146635761010080835404028352916020019161468e565b820191906000526020600020905b81548152906001019060200180831161467157829003601f168201915b50505050508152602001600182018054600181600116156101000203166002900480601f0160208091040260200160405190810160405280929190818152602001828054600181600116156101000203166002900480156147305780601f1061470557610100808354040283529160200191614730565b820191906000526020600020905b81548152906001019060200180831161471357829003601f168201915b505050505081525050815260200160088201548152602001600982018054600181600116156101000203166002900480601f0160208091040260200160405190810160405280929190818152602001828054600181600116156101000203166002900480156147e05780601f106147b5576101008083540402835291602001916147e0565b820191906000526020600020905b8154815290600101906020018083116147c357829003601f168201915b50505050508152505090508060a00151915050919050565b604051806040016040528060608152602001606081525090565b6040518060c001604052806148256148e0565b81526020016148326148e0565b815260200161483f6148e0565b815260200161484c6148e0565b815260200160008152602001606081525090565b828054600181600116156101000203166002900490600052602060002090601f016020900481019282601f106148a157805160ff19168380011785556148cf565b828001600101855582156148cf579182015b828111156148ce5782518255916020019190600101906148b3565b5b5090506148dc91906148fa565b5090565b604051806040016040528060608152602001606081525090565b61491c91905b80821115614918576000816000905550600101614900565b5090565b9056fea265627a7a72315820c630dfd5a520bf9bf87654397c7e0f8322936b824eb23253cb22dd71d5e6108064736f6c63430005100032",
  "source": "// SPDX-License-Identifier: MIT\r\npragma solidity >=0.4.21 <0.7.1;\r\ncontract FamilyTree{\r\n    address owner;\r\n    int256 familynumber=0;\r\n    mapping (int256 => Family) Familys;\r\n    int256 counter=0;\r\n    //mapping (int256 => family) single_family;\r\n    struct person{\r\n        string firstname;\r\n        string lastname;\r\n    }\r\n    struct Family{\r\n        person father;\r\n        person mother;\r\n        person child1;\r\n        person child2;\r\n        int256 familyno;\r\n        string familyname;\r\n    }\r\n\r\n    function create_family(string memory ffirstname, string  memory flastname,string memory mfirstname,string memory mlastname,string memory c1firstname, string  memory c1lastname,string memory c2firstname,string memory c2lastname,string memory  Famliyname)public {\r\n    owner = msg.sender;\r\n    if(counter>0)\r\n    {\r\n        familynumber++;\r\n    }\r\n    person memory Father = person(ffirstname,flastname);\r\n    person memory Mother = person(mfirstname,mlastname);\r\n    person memory child1 = person(c1firstname,c1lastname);\r\n    person memory child2 = person(c2firstname,c2lastname);\r\n    Family memory family = Family(Father,Mother,child1,child2,familynumber,Famliyname);\r\n    Familys[familynumber] = family;\r\n    counter++;\r\n    }\r\n    // function print_Family(int256 familynum)public returns(string memory ffirstname, string  memory flastname,string memory mfirstname,string memory mlastname,string memory c1firstname, string  memory c1lastname,string memory c2firstname,string memory c2lastname){\r\n    // Family memory family = Familys[familynum];\r\n    // return (family.father.firstname,family.father.lastname,family.mother.firstname,family.father.lastname,family.child1.firstname,family.child1.lastname,family.child2.firstname,family.child2.lastname);\r\n    // }\r\n    function get_Family_Number()public view returns(int256 familynum){\r\n      return familynumber;\r\n    }\r\n    function print_Father_First_Name(int256 familynum) public view returns(string memory firstname){\r\n      Family memory family = Familys[familynum];\r\n      return(family.father.firstname);\r\n    }\r\n    function print_Father_Last_Name(int256 familynum) public view returns(string memory lastname){\r\n      Family memory family = Familys[familynum];\r\n      return(family.father.lastname);\r\n    }\r\n    function print_Mother_First_Name(int256 familynum) public view returns(string memory firstname){\r\n      Family memory family = Familys[familynum];\r\n      return(family.mother.firstname);\r\n    }\r\n    function print_Mother_Last_Name(int256 familynum) public view returns(string memory lastname){\r\n      Family memory family = Familys[familynum];\r\n      return(family.mother.lastname);\r\n    }\r\n    function print_Child1_First_Name(int256 familynum) public view returns(string memory firstname){\r\n      Family memory family = Familys[familynum];\r\n      return(family.child1.firstname);\r\n    }\r\n    function print_Child1_Last_Name(int256 familynum) public view returns(string memory lastname){\r\n      Family memory family = Familys[familynum];\r\n      return(family.child1.lastname);\r\n    }\r\n    function print_Child2_First_Name(int256 familynum) public view returns(string memory firstname){\r\n      Family memory family = Familys[familynum];\r\n      return(family.child2.firstname);\r\n    }\r\n    function print_Child2_Last_Name(int256 familynum) public view returns(string memory lastname){\r\n      Family memory family = Familys[familynum];\r\n      return(family.child2.lastname);\r\n    }\r\n    function print1()public pure returns(string memory){\r\n      return \"hello\";\r\n    }\r\n    function print_Family_Name(int256 familynum) public view returns(string memory firstname){\r\n      Family memory family = Familys[familynum];\r\n      return(family.familyname);\r\n    }\r\n}\r\n",
  "sourcePath": "C:/Users/Uaser/Desktop/block chain/family tree/contracts/FamilyTree.sol",
  "compiler": {
    "name": "solc",
    "version": "0.5.16+commit.9c3226ce.Emscripten.clang"
  },
  "schemaVersion": "3.2.3",
  "updatedAt": "2020-08-23T14:10:16.415Z",
  "networkType": "ethereum",
  "devdoc": {
    "methods": {}
  },
  "userdoc": {
    "methods": {}
  }
}