{
  "contractName": "family",
  "abi": [
    {
      "inputs": [
        {
          "internalType": "string",
          "name": "firstname",
          "type": "string"
        },
        {
          "internalType": "string",
          "name": "lastname",
          "type": "string"
        },
        {
          "internalType": "int256",
          "name": "number",
          "type": "int256"
        },
        {
          "internalType": "string",
          "name": "role",
          "type": "string"
        }
      ],
      "payable": true,
      "stateMutability": "payable",
      "type": "constructor"
    },
    {
      "anonymous": false,
      "inputs": [
        {
          "indexed": false,
          "internalType": "address",
          "name": "fromAddress",
          "type": "address"
        },
        {
          "indexed": false,
          "internalType": "string",
          "name": "firstname",
          "type": "string"
        },
        {
          "indexed": false,
          "internalType": "string",
          "name": "lastname",
          "type": "string"
        }
      ],
      "name": "FamilyCreated",
      "type": "event"
    },
    {
      "anonymous": false,
      "inputs": [
        {
          "indexed": false,
          "internalType": "address",
          "name": "fromAddress",
          "type": "address"
        },
        {
          "indexed": false,
          "internalType": "string",
          "name": "firstname",
          "type": "string"
        },
        {
          "indexed": false,
          "internalType": "string",
          "name": "lastname",
          "type": "string"
        }
      ],
      "name": "familymemberadded",
      "type": "event"
    },
    {
      "constant": true,
      "inputs": [],
      "name": "getnumberoffamilymembers",
      "outputs": [
        {
          "internalType": "int256",
          "name": "",
          "type": "int256"
        }
      ],
      "payable": false,
      "stateMutability": "view",
      "type": "function"
    },
    {
      "constant": false,
      "inputs": [
        {
          "internalType": "string",
          "name": "firstname",
          "type": "string"
        },
        {
          "internalType": "string",
          "name": "lastname",
          "type": "string"
        }
      ],
      "name": "add_Child",
      "outputs": [],
      "payable": false,
      "stateMutability": "nonpayable",
      "type": "function"
    },
    {
      "constant": false,
      "inputs": [
        {
          "internalType": "string",
          "name": "firstname",
          "type": "string"
        },
        {
          "internalType": "string",
          "name": "lastname",
          "type": "string"
        }
      ],
      "name": "add_mother",
      "outputs": [],
      "payable": false,
      "stateMutability": "nonpayable",
      "type": "function"
    },
    {
      "constant": false,
      "inputs": [
        {
          "internalType": "string",
          "name": "firstname",
          "type": "string"
        },
        {
          "internalType": "string",
          "name": "lastname",
          "type": "string"
        }
      ],
      "name": "add_father",
      "outputs": [],
      "payable": false,
      "stateMutability": "nonpayable",
      "type": "function"
    }
  ],
  "bytecode": "0x60806040526040516200121638038062001216833981810160405260808110156200002957600080fd5b81019080805160405193929190846401000000008211156200004a57600080fd5b838201915060208201858111156200006157600080fd5b82518660018202830111640100000000821117156200007f57600080fd5b8083526020830192505050908051906020019080838360005b83811015620000b557808201518184015260208101905062000098565b50505050905090810190601f168015620000e35780820380516001836020036101000a031916815260200191505b50604052602001805160405193929190846401000000008211156200010757600080fd5b838201915060208201858111156200011e57600080fd5b82518660018202830111640100000000821117156200013c57600080fd5b8083526020830192505050908051906020019080838360005b838110156200017257808201518184015260208101905062000155565b50505050905090810190601f168015620001a05780820380516001836020036101000a031916815260200191505b506040526020018051906020019092919080516040519392919084640100000000821115620001ce57600080fd5b83820191506020820185811115620001e557600080fd5b82518660018202830111640100000000821117156200020357600080fd5b8083526020830192505050908051906020019080838360005b83811015620002395780820151818401526020810190506200021c565b50505050905090810190601f168015620002675780820380516001836020036101000a031916815260200191505b50604052505050336000806101000a81548173ffffffffffffffffffffffffffffffffffffffff021916908373ffffffffffffffffffffffffffffffffffffffff1602179055506000600560006101000a81548160ff0219169083151502179055506000600560016101000a81548160ff021916908315150217905550600060048190555081600181905550600160028190555062000305620006ce565b6040518060400160405280868152602001858152509050806003600080815260200190815260200160002060008201518160000190805190602001906200034e929190620006e8565b5060208201518160010190805190602001906200036d929190620006e8565b509050507f17047e473131f64085e1cca04050563e78f7f896adc03fb5193235ef03a1a2756000809054906101000a900473ffffffffffffffffffffffffffffffffffffffff168686604051808473ffffffffffffffffffffffffffffffffffffffff1673ffffffffffffffffffffffffffffffffffffffff1681526020018060200180602001838103835285818151815260200191508051906020019080838360005b838110156200042e57808201518184015260208101905062000411565b50505050905090810190601f1680156200045c5780820380516001836020036101000a031916815260200191505b50838103825284818151815260200191508051906020019080838360005b83811015620004975780820151818401526020810190506200047a565b50505050905090810190601f168015620004c55780820380516001836020036101000a031916815260200191505b509550505050505060405180910390a1620004e682620004f160201b60201c565b505050505062000797565b60405160200180807f6661746865720000000000000000000000000000000000000000000000000000815250600601905060405160208183030381529060405280519060200120816040516020018082805190602001908083835b602083106200057157805182526020820191506020810190506020830392506200054c565b6001836020036101000a038019825116818451168082178552505050505050905001915050604051602081830303815290604052805190602001201415620005d4576001600560006101000a81548160ff021916908315150217905550620006cb565b60405160200180807f6d6f746865720000000000000000000000000000000000000000000000000000815250600601905060405160208183030381529060405280519060200120816040516020018082805190602001908083835b602083106200065457805182526020820191506020810190506020830392506200062f565b6001836020036101000a038019825116818451168082178552505050505050905001915050604051602081830303815290604052805190602001201415620006b7576001600560016101000a81548160ff021916908315150217905550620006ca565b6004600081548092919060010191905055505b5b50565b604051806040016040528060608152602001606081525090565b828054600181600116156101000203166002900490600052602060002090601f016020900481019282601f106200072b57805160ff19168380011785556200075c565b828001600101855582156200075c579182015b828111156200075b5782518255916020019190600101906200073e565b5b5090506200076b91906200076f565b5090565b6200079491905b808211156200079057600081600090555060010162000776565b5090565b90565b610a6f80620007a76000396000f3fe608060405234801561001057600080fd5b506004361061004c5760003560e01c8063629e5af31461005157806384ba5a06146101a3578063a16c01b0146101c1578063af08983d14610313575b600080fd5b6101a16004803603604081101561006757600080fd5b810190808035906020019064010000000081111561008457600080fd5b82018360208201111561009657600080fd5b803590602001918460018302840111640100000000831117156100b857600080fd5b91908080601f016020809104026020016040519081016040528093929190818152602001838380828437600081840152601f19601f8201169050808301925050505050505091929192908035906020019064010000000081111561011b57600080fd5b82018360208201111561012d57600080fd5b8035906020019184600183028401116401000000008311171561014f57600080fd5b91908080601f016020809104026020016040519081016040528093929190818152602001838380828437600081840152601f19601f820116905080830192505050505050509192919290505050610465565b005b6101ab6104c6565b6040518082815260200191505060405180910390f35b610311600480360360408110156101d757600080fd5b81019080803590602001906401000000008111156101f457600080fd5b82018360208201111561020657600080fd5b8035906020019184600183028401116401000000008311171561022857600080fd5b91908080601f016020809104026020016040519081016040528093929190818152602001838380828437600081840152601f19601f8201169050808301925050505050505091929192908035906020019064010000000081111561028b57600080fd5b82018360208201111561029d57600080fd5b803590602001918460018302840111640100000000831117156102bf57600080fd5b91908080601f016020809104026020016040519081016040528093929190818152602001838380828437600081840152601f19601f8201169050808301925050505050505091929192905050506104d0565b005b6104636004803603604081101561032957600080fd5b810190808035906020019064010000000081111561034657600080fd5b82018360208201111561035857600080fd5b8035906020019184600183028401116401000000008311171561037a57600080fd5b91908080601f016020809104026020016040519081016040528093929190818152602001838380828437600081840152601f19601f820116905080830192505050505050509192919290803590602001906401000000008111156103dd57600080fd5b8201836020820111156103ef57600080fd5b8035906020019184600183028401116401000000008311171561041157600080fd5b91908080601f016020809104026020016040519081016040528093929190818152602001838380828437600081840152601f19601f820116905080830192505050505050509192919290505050610514565b005b60001515600560009054906101000a900460ff16151514156104c2576104c182826040518060400160405280600681526020017f6661746865720000000000000000000000000000000000000000000000000000815250610575565b5b5050565b6000600254905090565b61051082826040518060400160405280600581526020017f6368696c64000000000000000000000000000000000000000000000000000000815250610575565b5050565b60001515600560019054906101000a900460ff16151514156105715761057082826040518060400160405280600681526020017f6d6f746865720000000000000000000000000000000000000000000000000000815250610575565b5b5050565b336000806101000a81548173ffffffffffffffffffffffffffffffffffffffff021916908373ffffffffffffffffffffffffffffffffffffffff1602179055506105bd61097b565b6040518060400160405280858152602001848152509050806003600060025481526020019081526020016000206000820151816000019080519060200190610606929190610995565b506020820151816001019080519060200190610623929190610995565b50905050600260008154809291906001019190505550610642826107a6565b7fdbc2448233e6f15904e8fb6c3ad8de3e8b1c50c41ba98091d30bf8bfaf87cf926000809054906101000a900473ffffffffffffffffffffffffffffffffffffffff168585604051808473ffffffffffffffffffffffffffffffffffffffff1673ffffffffffffffffffffffffffffffffffffffff1681526020018060200180602001838103835285818151815260200191508051906020019080838360005b838110156106fd5780820151818401526020810190506106e2565b50505050905090810190601f16801561072a5780820380516001836020036101000a031916815260200191505b50838103825284818151815260200191508051906020019080838360005b83811015610763578082015181840152602081019050610748565b50505050905090810190601f1680156107905780820380516001836020036101000a031916815260200191505b509550505050505060405180910390a150505050565b60405160200180807f6661746865720000000000000000000000000000000000000000000000000000815250600601905060405160208183030381529060405280519060200120816040516020018082805190602001908083835b602083106108245780518252602082019150602081019050602083039250610801565b6001836020036101000a038019825116818451168082178552505050505050905001915050604051602081830303815290604052805190602001201415610885576001600560006101000a81548160ff021916908315150217905550610978565b60405160200180807f6d6f746865720000000000000000000000000000000000000000000000000000815250600601905060405160208183030381529060405280519060200120816040516020018082805190602001908083835b6020831061090357805182526020820191506020810190506020830392506108e0565b6001836020036101000a038019825116818451168082178552505050505050905001915050604051602081830303815290604052805190602001201415610964576001600560016101000a81548160ff021916908315150217905550610977565b6004600081548092919060010191905055505b5b50565b604051806040016040528060608152602001606081525090565b828054600181600116156101000203166002900490600052602060002090601f016020900481019282601f106109d657805160ff1916838001178555610a04565b82800160010185558215610a04579182015b82811115610a035782518255916020019190600101906109e8565b5b509050610a119190610a15565b5090565b610a3791905b80821115610a33576000816000905550600101610a1b565b5090565b9056fea265627a7a72315820c97a21348302f61a84fa3d6768132debf9e8c465fe98f4d4d360172d1f5fc95c64736f6c63430005100032",
  "source": "// SPDX-License-Identifier: MIT\r\npragma solidity >=0.4.21 <0.7.0;\r\ncontract family{\r\n    address owner;\r\n    int256 familynumber;\r\n    int256 familymembersno;\r\n    mapping (int256 => person) Family;\r\n    int256 noofchildren;\r\n    bool father_assigned;\r\n    bool mother_assigned;\r\n    struct person{\r\n        string firstname;\r\n        string lastname;\r\n    }\r\n        event FamilyCreated(address fromAddress, string firstname, string lastname);\r\n        event familymemberadded(address fromAddress, string firstname, string lastname);\r\n\r\n    constructor(string memory firstname, string  memory lastname,int256 number,string memory role) public payable{\r\n        owner = msg.sender;\r\n        father_assigned = false;\r\n        mother_assigned = false;\r\n        noofchildren = 0;\r\n        familynumber = number;\r\n        familymembersno = 1;\r\n        person memory p1 = person(firstname,lastname);\r\n        Family[0] = p1;\r\n        emit FamilyCreated(owner,firstname,lastname);\r\n        check_Role(role);\r\n    }\r\n    function add_Member(string memory firstname,string memory lastname,string memory role) private {\r\n        owner = msg.sender;\r\n        person memory p2 = person(firstname,lastname);\r\n        Family[familymembersno] = p2;\r\n        familymembersno ++;\r\n        check_Role(role);\r\n        emit familymemberadded(owner,firstname,lastname);\r\n\r\n    }\r\n    function check_Role(string memory role) private \r\n    {\r\n        if(keccak256(abi.encodePacked((role))) == keccak256(abi.encodePacked((\"father\")))) father_assigned = true;\r\n        else if(keccak256(abi.encodePacked((role))) == keccak256(abi.encodePacked((\"mother\")))) mother_assigned = true;\r\n        else noofchildren++;\r\n    }\r\n    function getnumberoffamilymembers() public view returns (int256){\r\n        return familymembersno;\r\n    }\r\n    function add_Child(string memory firstname,string memory lastname) public\r\n    {\r\n        add_Member(firstname,lastname,\"child\");\r\n    }\r\n    function add_mother(string memory firstname,string memory lastname) public{\r\n        if(mother_assigned == false){\r\n        add_Member(firstname,lastname,\"mother\");\r\n        }\r\n    }\r\n    function add_father(string memory firstname,string memory lastname) public{\r\n        if(father_assigned == false){\r\n        add_Member(firstname,lastname,\"father\");\r\n        }\r\n    }\r\n}\r\n",
  "sourcePath": "C:/Users/Uaser/Desktop/block chain/family tree/contracts/family.sol",
  "compiler": {
    "name": "solc",
    "version": "0.5.16+commit.9c3226ce.Emscripten.clang"
  },
  "schemaVersion": "3.2.3",
  "updatedAt": "2020-08-11T18:30:36.644Z",
  "networkType": "ethereum",
  "devdoc": {
    "methods": {}
  },
  "userdoc": {
    "methods": {}
  }
}