{
  "contractName": "family",
  "abi": [
    {
      "inputs": [
        {
          "internalType": "string",
          "name": "firstname",
          "type": "string"
        },
        {
          "internalType": "string",
          "name": "lastname",
          "type": "string"
        },
        {
          "internalType": "int256",
          "name": "number",
          "type": "int256"
        },
        {
          "internalType": "string",
          "name": "role",
          "type": "string"
        },
        {
          "internalType": "string",
          "name": "name",
          "type": "string"
        }
      ],
      "payable": true,
      "stateMutability": "payable",
      "type": "constructor"
    },
    {
      "anonymous": false,
      "inputs": [
        {
          "indexed": false,
          "internalType": "address",
          "name": "fromAddress",
          "type": "address"
        },
        {
          "indexed": false,
          "internalType": "string",
          "name": "firstname",
          "type": "string"
        },
        {
          "indexed": false,
          "internalType": "string",
          "name": "lastname",
          "type": "string"
        }
      ],
      "name": "FamilyCreated",
      "type": "event"
    },
    {
      "anonymous": false,
      "inputs": [
        {
          "indexed": false,
          "internalType": "address",
          "name": "fromAddress",
          "type": "address"
        },
        {
          "indexed": false,
          "internalType": "string",
          "name": "firstname",
          "type": "string"
        },
        {
          "indexed": false,
          "internalType": "string",
          "name": "lastname",
          "type": "string"
        }
      ],
      "name": "familymemberadded",
      "type": "event"
    },
    {
      "constant": true,
      "inputs": [],
      "name": "getnumberoffamilymembers",
      "outputs": [
        {
          "internalType": "int256",
          "name": "",
          "type": "int256"
        }
      ],
      "payable": false,
      "stateMutability": "view",
      "type": "function"
    },
    {
      "constant": false,
      "inputs": [
        {
          "internalType": "string",
          "name": "firstname",
          "type": "string"
        },
        {
          "internalType": "string",
          "name": "lastname",
          "type": "string"
        }
      ],
      "name": "add_Child",
      "outputs": [],
      "payable": false,
      "stateMutability": "nonpayable",
      "type": "function"
    },
    {
      "constant": false,
      "inputs": [
        {
          "internalType": "string",
          "name": "firstname",
          "type": "string"
        },
        {
          "internalType": "string",
          "name": "lastname",
          "type": "string"
        }
      ],
      "name": "add_mother",
      "outputs": [],
      "payable": false,
      "stateMutability": "nonpayable",
      "type": "function"
    },
    {
      "constant": false,
      "inputs": [
        {
          "internalType": "string",
          "name": "firstname",
          "type": "string"
        },
        {
          "internalType": "string",
          "name": "lastname",
          "type": "string"
        }
      ],
      "name": "add_father",
      "outputs": [],
      "payable": false,
      "stateMutability": "nonpayable",
      "type": "function"
    },
    {
      "constant": true,
      "inputs": [],
      "name": "get_childrencount",
      "outputs": [
        {
          "internalType": "int256",
          "name": "",
          "type": "int256"
        }
      ],
      "payable": false,
      "stateMutability": "view",
      "type": "function"
    },
    {
      "constant": true,
      "inputs": [],
      "name": "get_family_number",
      "outputs": [
        {
          "internalType": "int256",
          "name": "",
          "type": "int256"
        }
      ],
      "payable": false,
      "stateMutability": "view",
      "type": "function"
    },
    {
      "constant": true,
      "inputs": [],
      "name": "get_family_name",
      "outputs": [
        {
          "internalType": "string",
          "name": "",
          "type": "string"
        }
      ],
      "payable": false,
      "stateMutability": "view",
      "type": "function"
    }
  ],
  "bytecode": "0x60806040526040516200151a3803806200151a833981810160405260a08110156200002957600080fd5b81019080805160405193929190846401000000008211156200004a57600080fd5b838201915060208201858111156200006157600080fd5b82518660018202830111640100000000821117156200007f57600080fd5b8083526020830192505050908051906020019080838360005b83811015620000b557808201518184015260208101905062000098565b50505050905090810190601f168015620000e35780820380516001836020036101000a031916815260200191505b50604052602001805160405193929190846401000000008211156200010757600080fd5b838201915060208201858111156200011e57600080fd5b82518660018202830111640100000000821117156200013c57600080fd5b8083526020830192505050908051906020019080838360005b838110156200017257808201518184015260208101905062000155565b50505050905090810190601f168015620001a05780820380516001836020036101000a031916815260200191505b506040526020018051906020019092919080516040519392919084640100000000821115620001ce57600080fd5b83820191506020820185811115620001e557600080fd5b82518660018202830111640100000000821117156200020357600080fd5b8083526020830192505050908051906020019080838360005b83811015620002395780820151818401526020810190506200021c565b50505050905090810190601f168015620002675780820380516001836020036101000a031916815260200191505b50604052602001805160405193929190846401000000008211156200028b57600080fd5b83820191506020820185811115620002a257600080fd5b8251866001820283011164010000000082111715620002c057600080fd5b8083526020830192505050908051906020019080838360005b83811015620002f6578082015181840152602081019050620002d9565b50505050905090810190601f168015620003245780820380516001836020036101000a031916815260200191505b50604052505050336000806101000a81548173ffffffffffffffffffffffffffffffffffffffff021916908373ffffffffffffffffffffffffffffffffffffffff1602179055506000600660006101000a81548160ff0219169083151502179055506000600660016101000a81548160ff0219169083151502179055506000600581905550826001819055508060029080519060200190620003c8929190620007a5565b506001600381905550620003db6200082c565b6040518060400160405280878152602001868152509050806004600080815260200190815260200160002060008201518160000190805190602001906200042492919062000846565b5060208201518160010190805190602001906200044392919062000846565b509050507f17047e473131f64085e1cca04050563e78f7f896adc03fb5193235ef03a1a2756000809054906101000a900473ffffffffffffffffffffffffffffffffffffffff168787604051808473ffffffffffffffffffffffffffffffffffffffff1673ffffffffffffffffffffffffffffffffffffffff1681526020018060200180602001838103835285818151815260200191508051906020019080838360005b8381101562000504578082015181840152602081019050620004e7565b50505050905090810190601f168015620005325780820380516001836020036101000a031916815260200191505b50838103825284818151815260200191508051906020019080838360005b838110156200056d57808201518184015260208101905062000550565b50505050905090810190601f1680156200059b5780820380516001836020036101000a031916815260200191505b509550505050505060405180910390a1620005bc83620005c860201b60201c565b505050505050620008f5565b60405160200180807f6661746865720000000000000000000000000000000000000000000000000000815250600601905060405160208183030381529060405280519060200120816040516020018082805190602001908083835b6020831062000648578051825260208201915060208101905060208303925062000623565b6001836020036101000a038019825116818451168082178552505050505050905001915050604051602081830303815290604052805190602001201415620006ab576001600660006101000a81548160ff021916908315150217905550620007a2565b60405160200180807f6d6f746865720000000000000000000000000000000000000000000000000000815250600601905060405160208183030381529060405280519060200120816040516020018082805190602001908083835b602083106200072b578051825260208201915060208101905060208303925062000706565b6001836020036101000a0380198251168184511680821785525050505050509050019150506040516020818303038152906040528051906020012014156200078e576001600660016101000a81548160ff021916908315150217905550620007a1565b6005600081548092919060010191905055505b5b50565b828054600181600116156101000203166002900490600052602060002090601f016020900481019282601f10620007e857805160ff191683800117855562000819565b8280016001018555821562000819579182015b8281111562000818578251825591602001919060010190620007fb565b5b509050620008289190620008cd565b5090565b604051806040016040528060608152602001606081525090565b828054600181600116156101000203166002900490600052602060002090601f016020900481019282601f106200088957805160ff1916838001178555620008ba565b82800160010185558215620008ba579182015b82811115620008b95782518255916020019190600101906200089c565b5b509050620008c99190620008cd565b5090565b620008f291905b80821115620008ee576000816000905550600101620008d4565b5090565b90565b610c1580620009056000396000f3fe608060405234801561001057600080fd5b506004361061007d5760003560e01c8063a2618fad1161005b578063a2618fad14610344578063a69daadc14610362578063af08983d146103e5578063c5ce0323146105375761007d565b8063629e5af31461008257806384ba5a06146101d4578063a16c01b0146101f2575b600080fd5b6101d26004803603604081101561009857600080fd5b81019080803590602001906401000000008111156100b557600080fd5b8201836020820111156100c757600080fd5b803590602001918460018302840111640100000000831117156100e957600080fd5b91908080601f016020809104026020016040519081016040528093929190818152602001838380828437600081840152601f19601f8201169050808301925050505050505091929192908035906020019064010000000081111561014c57600080fd5b82018360208201111561015e57600080fd5b8035906020019184600183028401116401000000008311171561018057600080fd5b91908080601f016020809104026020016040519081016040528093929190818152602001838380828437600081840152601f19601f820116905080830192505050505050509192919290505050610555565b005b6101dc6105b6565b6040518082815260200191505060405180910390f35b6103426004803603604081101561020857600080fd5b810190808035906020019064010000000081111561022557600080fd5b82018360208201111561023757600080fd5b8035906020019184600183028401116401000000008311171561025957600080fd5b91908080601f016020809104026020016040519081016040528093929190818152602001838380828437600081840152601f19601f820116905080830192505050505050509192919290803590602001906401000000008111156102bc57600080fd5b8201836020820111156102ce57600080fd5b803590602001918460018302840111640100000000831117156102f057600080fd5b91908080601f016020809104026020016040519081016040528093929190818152602001838380828437600081840152601f19601f8201169050808301925050505050505091929192905050506105c0565b005b61034c610604565b6040518082815260200191505060405180910390f35b61036a61060e565b6040518080602001828103825283818151815260200191508051906020019080838360005b838110156103aa57808201518184015260208101905061038f565b50505050905090810190601f1680156103d75780820380516001836020036101000a031916815260200191505b509250505060405180910390f35b610535600480360360408110156103fb57600080fd5b810190808035906020019064010000000081111561041857600080fd5b82018360208201111561042a57600080fd5b8035906020019184600183028401116401000000008311171561044c57600080fd5b91908080601f016020809104026020016040519081016040528093929190818152602001838380828437600081840152601f19601f820116905080830192505050505050509192919290803590602001906401000000008111156104af57600080fd5b8201836020820111156104c157600080fd5b803590602001918460018302840111640100000000831117156104e357600080fd5b91908080601f016020809104026020016040519081016040528093929190818152602001838380828437600081840152601f19601f8201169050808301925050505050505091929192905050506106b0565b005b61053f610711565b6040518082815260200191505060405180910390f35b60001515600660009054906101000a900460ff16151514156105b2576105b182826040518060400160405280600681526020017f666174686572000000000000000000000000000000000000000000000000000081525061071b565b5b5050565b6000600354905090565b61060082826040518060400160405280600581526020017f6368696c6400000000000000000000000000000000000000000000000000000081525061071b565b5050565b6000600154905090565b606060028054600181600116156101000203166002900480601f0160208091040260200160405190810160405280929190818152602001828054600181600116156101000203166002900480156106a65780601f1061067b576101008083540402835291602001916106a6565b820191906000526020600020905b81548152906001019060200180831161068957829003601f168201915b5050505050905090565b60001515600660019054906101000a900460ff161515141561070d5761070c82826040518060400160405280600681526020017f6d6f74686572000000000000000000000000000000000000000000000000000081525061071b565b5b5050565b6000600554905090565b336000806101000a81548173ffffffffffffffffffffffffffffffffffffffff021916908373ffffffffffffffffffffffffffffffffffffffff160217905550610763610b21565b60405180604001604052808581526020018481525090508060046000600354815260200190815260200160002060008201518160000190805190602001906107ac929190610b3b565b5060208201518160010190805190602001906107c9929190610b3b565b509050506003600081548092919060010191905055506107e88261094c565b7fdbc2448233e6f15904e8fb6c3ad8de3e8b1c50c41ba98091d30bf8bfaf87cf926000809054906101000a900473ffffffffffffffffffffffffffffffffffffffff168585604051808473ffffffffffffffffffffffffffffffffffffffff1673ffffffffffffffffffffffffffffffffffffffff1681526020018060200180602001838103835285818151815260200191508051906020019080838360005b838110156108a3578082015181840152602081019050610888565b50505050905090810190601f1680156108d05780820380516001836020036101000a031916815260200191505b50838103825284818151815260200191508051906020019080838360005b838110156109095780820151818401526020810190506108ee565b50505050905090810190601f1680156109365780820380516001836020036101000a031916815260200191505b509550505050505060405180910390a150505050565b60405160200180807f6661746865720000000000000000000000000000000000000000000000000000815250600601905060405160208183030381529060405280519060200120816040516020018082805190602001908083835b602083106109ca57805182526020820191506020810190506020830392506109a7565b6001836020036101000a038019825116818451168082178552505050505050905001915050604051602081830303815290604052805190602001201415610a2b576001600660006101000a81548160ff021916908315150217905550610b1e565b60405160200180807f6d6f746865720000000000000000000000000000000000000000000000000000815250600601905060405160208183030381529060405280519060200120816040516020018082805190602001908083835b60208310610aa95780518252602082019150602081019050602083039250610a86565b6001836020036101000a038019825116818451168082178552505050505050905001915050604051602081830303815290604052805190602001201415610b0a576001600660016101000a81548160ff021916908315150217905550610b1d565b6005600081548092919060010191905055505b5b50565b604051806040016040528060608152602001606081525090565b828054600181600116156101000203166002900490600052602060002090601f016020900481019282601f10610b7c57805160ff1916838001178555610baa565b82800160010185558215610baa579182015b82811115610ba9578251825591602001919060010190610b8e565b5b509050610bb79190610bbb565b5090565b610bdd91905b80821115610bd9576000816000905550600101610bc1565b5090565b9056fea265627a7a723158208b88b509fc8f19bf8277c516f1982e10661a982eeb79f9c254c44e91022c5f0f64736f6c63430005100032",
  "source": "// SPDX-License-Identifier: MIT\r\npragma solidity >=0.4.21 <0.7.0;\r\ncontract family{\r\n    address owner;\r\n    int256 familynumber;\r\n    string familyname;\r\n    int256 familymembersno;\r\n    mapping (int256 => person) Family;\r\n    int256 noofchildren;\r\n    bool father_assigned;\r\n    bool mother_assigned;\r\n    struct person{\r\n        string firstname;\r\n        string lastname;\r\n    }\r\n        event FamilyCreated(address fromAddress, string firstname, string lastname);\r\n        event familymemberadded(address fromAddress, string firstname, string lastname);\r\n\r\n    constructor(string memory firstname, string  memory lastname,int256 number,string memory role,string memory name) public payable{\r\n        owner = msg.sender;\r\n        father_assigned = false;\r\n        mother_assigned = false;\r\n        noofchildren = 0;\r\n        familynumber = number;\r\n        familyname = name;\r\n        familymembersno = 1;\r\n        person memory p1 = person(firstname,lastname);\r\n        Family[0] = p1;\r\n        emit FamilyCreated(owner,firstname,lastname);\r\n        check_Role(role);\r\n    }\r\n    function add_Member(string memory firstname,string memory lastname,string memory role) private {\r\n        owner = msg.sender;\r\n        person memory p2 = person(firstname,lastname);\r\n        Family[familymembersno] = p2;\r\n        familymembersno ++;\r\n        check_Role(role);\r\n        emit familymemberadded(owner,firstname,lastname);\r\n\r\n    }\r\n    function check_Role(string memory role) private \r\n    {\r\n        if(keccak256(abi.encodePacked((role))) == keccak256(abi.encodePacked((\"father\")))) father_assigned = true;\r\n        else if(keccak256(abi.encodePacked((role))) == keccak256(abi.encodePacked((\"mother\")))) mother_assigned = true;\r\n        else noofchildren++;\r\n    }\r\n    function getnumberoffamilymembers() public view returns (int256){\r\n        return familymembersno;\r\n    }\r\n    function add_Child(string memory firstname,string memory lastname) public\r\n    {\r\n        add_Member(firstname,lastname,\"child\");\r\n    }\r\n    function add_mother(string memory firstname,string memory lastname) public{\r\n        if(mother_assigned == false){\r\n        add_Member(firstname,lastname,\"mother\");\r\n        }\r\n    }\r\n    function add_father(string memory firstname,string memory lastname) public{\r\n        if(father_assigned == false){\r\n        add_Member(firstname,lastname,\"father\");\r\n        }\r\n    }\r\n    function get_childrencount()public view returns(int256){\r\n        return noofchildren;\r\n    }\r\n    function get_family_number()public view returns(int256){\r\n        return familynumber;\r\n    }\r\n    function get_family_name()public view returns(string memory){\r\n        return familyname;\r\n    }\r\n}\r\n",
  "sourcePath": "C:/Users/Uaser/Downloads/family_tree-master/family_tree-master/contracts/family.sol",
  "compiler": {
    "name": "solc",
    "version": "0.5.16+commit.9c3226ce.Emscripten.clang"
  },
  "schemaVersion": "3.2.3",
  "updatedAt": "2020-08-24T22:04:05.262Z",
  "devdoc": {
    "methods": {}
  },
  "userdoc": {
    "methods": {}
  }
}