{
  "contractName": "Family",
  "abi": [
    {
      "anonymous": false,
      "inputs": [
        {
          "indexed": false,
          "internalType": "address",
          "name": "fromAddress",
          "type": "address"
        },
        {
          "indexed": false,
          "internalType": "string",
          "name": "firstname",
          "type": "string"
        },
        {
          "indexed": false,
          "internalType": "string",
          "name": "lastname",
          "type": "string"
        }
      ],
      "name": "FamilyCreated",
      "type": "event"
    },
    {
      "anonymous": false,
      "inputs": [
        {
          "indexed": false,
          "internalType": "address",
          "name": "fromAddress",
          "type": "address"
        },
        {
          "indexed": false,
          "internalType": "string",
          "name": "firstname",
          "type": "string"
        },
        {
          "indexed": false,
          "internalType": "string",
          "name": "lastname",
          "type": "string"
        }
      ],
      "name": "familymemberadded",
      "type": "event"
    },
    {
      "constant": false,
      "inputs": [
        {
          "internalType": "string",
          "name": "firstname",
          "type": "string"
        },
        {
          "internalType": "string",
          "name": "lastname",
          "type": "string"
        },
        {
          "internalType": "int256",
          "name": "number",
          "type": "int256"
        },
        {
          "internalType": "string",
          "name": "role",
          "type": "string"
        },
        {
          "internalType": "string",
          "name": "name",
          "type": "string"
        }
      ],
      "name": "create_family",
      "outputs": [],
      "payable": false,
      "stateMutability": "nonpayable",
      "type": "function"
    },
    {
      "constant": true,
      "inputs": [],
      "name": "getnumberoffamilymembers",
      "outputs": [
        {
          "internalType": "int256",
          "name": "",
          "type": "int256"
        }
      ],
      "payable": false,
      "stateMutability": "view",
      "type": "function"
    },
    {
      "constant": false,
      "inputs": [
        {
          "internalType": "string",
          "name": "firstname",
          "type": "string"
        },
        {
          "internalType": "string",
          "name": "lastname",
          "type": "string"
        }
      ],
      "name": "add_Child",
      "outputs": [],
      "payable": false,
      "stateMutability": "nonpayable",
      "type": "function"
    },
    {
      "constant": false,
      "inputs": [
        {
          "internalType": "string",
          "name": "firstname",
          "type": "string"
        },
        {
          "internalType": "string",
          "name": "lastname",
          "type": "string"
        }
      ],
      "name": "add_mother",
      "outputs": [],
      "payable": false,
      "stateMutability": "nonpayable",
      "type": "function"
    },
    {
      "constant": false,
      "inputs": [
        {
          "internalType": "string",
          "name": "firstname",
          "type": "string"
        },
        {
          "internalType": "string",
          "name": "lastname",
          "type": "string"
        }
      ],
      "name": "add_father",
      "outputs": [],
      "payable": false,
      "stateMutability": "nonpayable",
      "type": "function"
    },
    {
      "constant": true,
      "inputs": [],
      "name": "get_childrencount",
      "outputs": [
        {
          "internalType": "int256",
          "name": "",
          "type": "int256"
        }
      ],
      "payable": false,
      "stateMutability": "view",
      "type": "function"
    },
    {
      "constant": true,
      "inputs": [],
      "name": "get_family_number",
      "outputs": [
        {
          "internalType": "int256",
          "name": "",
          "type": "int256"
        }
      ],
      "payable": false,
      "stateMutability": "view",
      "type": "function"
    },
    {
      "constant": true,
      "inputs": [],
      "name": "get_family_name",
      "outputs": [
        {
          "internalType": "string",
          "name": "",
          "type": "string"
        }
      ],
      "payable": false,
      "stateMutability": "view",
      "type": "function"
    }
  ],
  "bytecode": "0x608060405234801561001057600080fd5b506111ad806100206000396000f3fe608060405234801561001057600080fd5b50600436106100885760003560e01c8063a2618fad1161005b578063a2618fad146105d9578063a69daadc146105f7578063af08983d1461067a578063c5ce0323146107cc57610088565b8063629e5af31461008d5780637459e5c4146101df57806384ba5a0614610469578063a16c01b014610487575b600080fd5b6101dd600480360360408110156100a357600080fd5b81019080803590602001906401000000008111156100c057600080fd5b8201836020820111156100d257600080fd5b803590602001918460018302840111640100000000831117156100f457600080fd5b91908080601f016020809104026020016040519081016040528093929190818152602001838380828437600081840152601f19601f8201169050808301925050505050505091929192908035906020019064010000000081111561015757600080fd5b82018360208201111561016957600080fd5b8035906020019184600183028401116401000000008311171561018b57600080fd5b91908080601f016020809104026020016040519081016040528093929190818152602001838380828437600081840152601f19601f8201169050808301925050505050505091929192905050506107ea565b005b610467600480360360a08110156101f557600080fd5b810190808035906020019064010000000081111561021257600080fd5b82018360208201111561022457600080fd5b8035906020019184600183028401116401000000008311171561024657600080fd5b91908080601f016020809104026020016040519081016040528093929190818152602001838380828437600081840152601f19601f820116905080830192505050505050509192919290803590602001906401000000008111156102a957600080fd5b8201836020820111156102bb57600080fd5b803590602001918460018302840111640100000000831117156102dd57600080fd5b91908080601f016020809104026020016040519081016040528093929190818152602001838380828437600081840152601f19601f820116905080830192505050505050509192919290803590602001909291908035906020019064010000000081111561034a57600080fd5b82018360208201111561035c57600080fd5b8035906020019184600183028401116401000000008311171561037e57600080fd5b91908080601f016020809104026020016040519081016040528093929190818152602001838380828437600081840152601f19601f820116905080830192505050505050509192919290803590602001906401000000008111156103e157600080fd5b8201836020820111156103f357600080fd5b8035906020019184600183028401116401000000008311171561041557600080fd5b91908080601f016020809104026020016040519081016040528093929190818152602001838380828437600081840152601f19601f82011690508083019250505050505050919291929050505061084b565b005b610471610ace565b6040518082815260200191505060405180910390f35b6105d76004803603604081101561049d57600080fd5b81019080803590602001906401000000008111156104ba57600080fd5b8201836020820111156104cc57600080fd5b803590602001918460018302840111640100000000831117156104ee57600080fd5b91908080601f016020809104026020016040519081016040528093929190818152602001838380828437600081840152601f19601f8201169050808301925050505050505091929192908035906020019064010000000081111561055157600080fd5b82018360208201111561056357600080fd5b8035906020019184600183028401116401000000008311171561058557600080fd5b91908080601f016020809104026020016040519081016040528093929190818152602001838380828437600081840152601f19601f820116905080830192505050505050509192919290505050610ad8565b005b6105e1610b1c565b6040518082815260200191505060405180910390f35b6105ff610b26565b6040518080602001828103825283818151815260200191508051906020019080838360005b8381101561063f578082015181840152602081019050610624565b50505050905090810190601f16801561066c5780820380516001836020036101000a031916815260200191505b509250505060405180910390f35b6107ca6004803603604081101561069057600080fd5b81019080803590602001906401000000008111156106ad57600080fd5b8201836020820111156106bf57600080fd5b803590602001918460018302840111640100000000831117156106e157600080fd5b91908080601f016020809104026020016040519081016040528093929190818152602001838380828437600081840152601f19601f8201169050808301925050505050505091929192908035906020019064010000000081111561074457600080fd5b82018360208201111561075657600080fd5b8035906020019184600183028401116401000000008311171561077857600080fd5b91908080601f016020809104026020016040519081016040528093929190818152602001838380828437600081840152601f19601f820116905080830192505050505050509192919290505050610bc8565b005b6107d4610c29565b6040518082815260200191505060405180910390f35b60001515600660009054906101000a900460ff16151514156108475761084682826040518060400160405280600681526020017f6661746865720000000000000000000000000000000000000000000000000000815250610c33565b5b5050565b336000806101000a81548173ffffffffffffffffffffffffffffffffffffffff021916908373ffffffffffffffffffffffffffffffffffffffff1602179055506000600660006101000a81548160ff0219169083151502179055506000600660016101000a81548160ff02191690831515021790555060006005819055508260018190555080600290805190602001906108e6929190611039565b5060016003819055506108f76110b9565b60405180604001604052808781526020018681525090508060046000808152602001908152602001600020600082015181600001908051906020019061093e9291906110d3565b50602082015181600101908051906020019061095b9291906110d3565b509050507f17047e473131f64085e1cca04050563e78f7f896adc03fb5193235ef03a1a2756000809054906101000a900473ffffffffffffffffffffffffffffffffffffffff168787604051808473ffffffffffffffffffffffffffffffffffffffff1673ffffffffffffffffffffffffffffffffffffffff1681526020018060200180602001838103835285818151815260200191508051906020019080838360005b83811015610a1a5780820151818401526020810190506109ff565b50505050905090810190601f168015610a475780820380516001836020036101000a031916815260200191505b50838103825284818151815260200191508051906020019080838360005b83811015610a80578082015181840152602081019050610a65565b50505050905090810190601f168015610aad5780820380516001836020036101000a031916815260200191505b509550505050505060405180910390a1610ac683610e64565b505050505050565b6000600354905090565b610b1882826040518060400160405280600581526020017f6368696c64000000000000000000000000000000000000000000000000000000815250610c33565b5050565b6000600154905090565b606060028054600181600116156101000203166002900480601f016020809104026020016040519081016040528092919081815260200182805460018160011615610100020316600290048015610bbe5780601f10610b9357610100808354040283529160200191610bbe565b820191906000526020600020905b815481529060010190602001808311610ba157829003601f168201915b5050505050905090565b60001515600660019054906101000a900460ff1615151415610c2557610c2482826040518060400160405280600681526020017f6d6f746865720000000000000000000000000000000000000000000000000000815250610c33565b5b5050565b6000600554905090565b336000806101000a81548173ffffffffffffffffffffffffffffffffffffffff021916908373ffffffffffffffffffffffffffffffffffffffff160217905550610c7b6110b9565b6040518060400160405280858152602001848152509050806004600060035481526020019081526020016000206000820151816000019080519060200190610cc49291906110d3565b506020820151816001019080519060200190610ce19291906110d3565b50905050600360008154809291906001019190505550610d0082610e64565b7fdbc2448233e6f15904e8fb6c3ad8de3e8b1c50c41ba98091d30bf8bfaf87cf926000809054906101000a900473ffffffffffffffffffffffffffffffffffffffff168585604051808473ffffffffffffffffffffffffffffffffffffffff1673ffffffffffffffffffffffffffffffffffffffff1681526020018060200180602001838103835285818151815260200191508051906020019080838360005b83811015610dbb578082015181840152602081019050610da0565b50505050905090810190601f168015610de85780820380516001836020036101000a031916815260200191505b50838103825284818151815260200191508051906020019080838360005b83811015610e21578082015181840152602081019050610e06565b50505050905090810190601f168015610e4e5780820380516001836020036101000a031916815260200191505b509550505050505060405180910390a150505050565b60405160200180807f6661746865720000000000000000000000000000000000000000000000000000815250600601905060405160208183030381529060405280519060200120816040516020018082805190602001908083835b60208310610ee25780518252602082019150602081019050602083039250610ebf565b6001836020036101000a038019825116818451168082178552505050505050905001915050604051602081830303815290604052805190602001201415610f43576001600660006101000a81548160ff021916908315150217905550611036565b60405160200180807f6d6f746865720000000000000000000000000000000000000000000000000000815250600601905060405160208183030381529060405280519060200120816040516020018082805190602001908083835b60208310610fc15780518252602082019150602081019050602083039250610f9e565b6001836020036101000a038019825116818451168082178552505050505050905001915050604051602081830303815290604052805190602001201415611022576001600660016101000a81548160ff021916908315150217905550611035565b6005600081548092919060010191905055505b5b50565b828054600181600116156101000203166002900490600052602060002090601f016020900481019282601f1061107a57805160ff19168380011785556110a8565b828001600101855582156110a8579182015b828111156110a757825182559160200191906001019061108c565b5b5090506110b59190611153565b5090565b604051806040016040528060608152602001606081525090565b828054600181600116156101000203166002900490600052602060002090601f016020900481019282601f1061111457805160ff1916838001178555611142565b82800160010185558215611142579182015b82811115611141578251825591602001919060010190611126565b5b50905061114f9190611153565b5090565b61117591905b80821115611171576000816000905550600101611159565b5090565b9056fea265627a7a723158201ae53955ed835f44882aca683cf6ded2f05422099eb0b903585009e72444941764736f6c63430005100032",
  "source": "// SPDX-License-Identifier: MIT\r\npragma solidity >=0.4.21 <0.7.0;\r\ncontract Family{\r\n    address owner;\r\n    int256 familynumber;\r\n    string familyname;\r\n    int256 familymembersno;\r\n    mapping (int256 => person) Familymembers;\r\n    int256 noofchildren;\r\n    bool father_assigned;\r\n    bool mother_assigned;\r\n    struct person{\r\n        string firstname;\r\n        string lastname;\r\n    }\r\n        event FamilyCreated(address fromAddress, string firstname, string lastname);\r\n        event familymemberadded(address fromAddress, string firstname, string lastname);\r\n\r\n    function create_family(string memory firstname, string  memory lastname,int256 number,string memory role,string memory name)public  {\r\n    owner = msg.sender;\r\n    father_assigned = false;\r\n    mother_assigned = false;\r\n    noofchildren = 0;\r\n    familynumber = number;\r\n    familyname = name;\r\n    familymembersno = 1;\r\n    person memory p1 = person(firstname,lastname);\r\n    Familymembers[0] = p1;\r\n    emit FamilyCreated(owner,firstname,lastname);\r\n    check_Role(role);\r\n    }\r\n    function add_Member(string memory firstname,string memory lastname,string memory role) private {\r\n        owner = msg.sender;\r\n        person memory p2 = person(firstname,lastname);\r\n        Familymembers[familymembersno] = p2;\r\n        familymembersno ++;\r\n        check_Role(role);\r\n        emit familymemberadded(owner,firstname,lastname);\r\n\r\n    }\r\n    function check_Role(string memory role) private \r\n    {\r\n        if(keccak256(abi.encodePacked((role))) == keccak256(abi.encodePacked((\"father\")))) father_assigned = true;\r\n        else if(keccak256(abi.encodePacked((role))) == keccak256(abi.encodePacked((\"mother\")))) mother_assigned = true;\r\n        else noofchildren++;\r\n    }\r\n    function getnumberoffamilymembers() public view returns (int256){\r\n        return familymembersno;\r\n    }\r\n    function add_Child(string memory firstname,string memory lastname) public\r\n    {\r\n        add_Member(firstname,lastname,\"child\");\r\n    }\r\n    function add_mother(string memory firstname,string memory lastname) public{\r\n        if(mother_assigned == false){\r\n        add_Member(firstname,lastname,\"mother\");\r\n        }\r\n    }\r\n    function add_father(string memory firstname,string memory lastname) public{\r\n        if(father_assigned == false){\r\n        add_Member(firstname,lastname,\"father\");\r\n        }\r\n    }\r\n    function get_childrencount()public view returns(int256){\r\n        return noofchildren;\r\n    }\r\n    function get_family_number()public view returns(int256){\r\n        return familynumber;\r\n    }\r\n    function get_family_name()public view returns(string memory){\r\n        return familyname;\r\n    }\r\n}\r\n",
  "sourcePath": "C:/Users/Uaser/Desktop/block chain/family tree/contracts/family.sol",
  "compiler": {
    "name": "solc",
    "version": "0.5.16+commit.9c3226ce.Emscripten.clang"
  },
  "schemaVersion": "3.2.3",
  "updatedAt": "2020-08-23T02:44:18.240Z",
  "devdoc": {
    "methods": {}
  },
  "userdoc": {
    "methods": {}
  }
}