{
  "contractName": "FamilyTree",
  "abi": [
    {
      "constant": false,
      "inputs": [
        {
          "internalType": "string",
          "name": "ffirstname",
          "type": "string"
        },
        {
          "internalType": "string",
          "name": "flastname",
          "type": "string"
        },
        {
          "internalType": "string",
          "name": "mfirstname",
          "type": "string"
        },
        {
          "internalType": "string",
          "name": "mlastname",
          "type": "string"
        },
        {
          "internalType": "string",
          "name": "c1firstname",
          "type": "string"
        },
        {
          "internalType": "string",
          "name": "c1lastname",
          "type": "string"
        },
        {
          "internalType": "string",
          "name": "c2firstname",
          "type": "string"
        },
        {
          "internalType": "string",
          "name": "c2lastname",
          "type": "string"
        },
        {
          "internalType": "string",
          "name": "Famliyname",
          "type": "string"
        }
      ],
      "name": "create_family",
      "outputs": [],
      "payable": false,
      "stateMutability": "nonpayable",
      "type": "function"
    },
    {
      "constant": true,
      "inputs": [],
      "name": "get_Family_Number",
      "outputs": [
        {
          "internalType": "int256",
          "name": "familynum",
          "type": "int256"
        }
      ],
      "payable": false,
      "stateMutability": "view",
      "type": "function"
    },
    {
      "constant": true,
      "inputs": [
        {
          "internalType": "int256",
          "name": "familynum",
          "type": "int256"
        }
      ],
      "name": "print_Father_First_Name",
      "outputs": [
        {
          "internalType": "string",
          "name": "firstname",
          "type": "string"
        }
      ],
      "payable": false,
      "stateMutability": "view",
      "type": "function"
    },
    {
      "constant": true,
      "inputs": [
        {
          "internalType": "int256",
          "name": "familynum",
          "type": "int256"
        }
      ],
      "name": "print_Father_Last_Name",
      "outputs": [
        {
          "internalType": "string",
          "name": "lastname",
          "type": "string"
        }
      ],
      "payable": false,
      "stateMutability": "view",
      "type": "function"
    },
    {
      "constant": true,
      "inputs": [
        {
          "internalType": "int256",
          "name": "familynum",
          "type": "int256"
        }
      ],
      "name": "print_Mother_First_Name",
      "outputs": [
        {
          "internalType": "string",
          "name": "firstname",
          "type": "string"
        }
      ],
      "payable": false,
      "stateMutability": "view",
      "type": "function"
    },
    {
      "constant": true,
      "inputs": [
        {
          "internalType": "int256",
          "name": "familynum",
          "type": "int256"
        }
      ],
      "name": "print_Mother_Last_Name",
      "outputs": [
        {
          "internalType": "string",
          "name": "lastname",
          "type": "string"
        }
      ],
      "payable": false,
      "stateMutability": "view",
      "type": "function"
    },
    {
      "constant": true,
      "inputs": [
        {
          "internalType": "int256",
          "name": "familynum",
          "type": "int256"
        }
      ],
      "name": "print_Child1_First_Name",
      "outputs": [
        {
          "internalType": "string",
          "name": "firstname",
          "type": "string"
        }
      ],
      "payable": false,
      "stateMutability": "view",
      "type": "function"
    },
    {
      "constant": true,
      "inputs": [
        {
          "internalType": "int256",
          "name": "familynum",
          "type": "int256"
        }
      ],
      "name": "print_Child1_Last_Name",
      "outputs": [
        {
          "internalType": "string",
          "name": "lastname",
          "type": "string"
        }
      ],
      "payable": false,
      "stateMutability": "view",
      "type": "function"
    },
    {
      "constant": true,
      "inputs": [
        {
          "internalType": "int256",
          "name": "familynum",
          "type": "int256"
        }
      ],
      "name": "print_Child2_First_Name",
      "outputs": [
        {
          "internalType": "string",
          "name": "firstname",
          "type": "string"
        }
      ],
      "payable": false,
      "stateMutability": "view",
      "type": "function"
    },
    {
      "constant": true,
      "inputs": [
        {
          "internalType": "int256",
          "name": "familynum",
          "type": "int256"
        }
      ],
      "name": "print_Child2_Last_Name",
      "outputs": [
        {
          "internalType": "string",
          "name": "lastname",
          "type": "string"
        }
      ],
      "payable": false,
      "stateMutability": "view",
      "type": "function"
    },
    {
      "constant": true,
      "inputs": [
        {
          "internalType": "int256",
          "name": "familynum",
          "type": "int256"
        }
      ],
      "name": "print_Family_Name",
      "outputs": [
        {
          "internalType": "string",
          "name": "firstname",
          "type": "string"
        }
      ],
      "payable": false,
      "stateMutability": "view",
      "type": "function"
    }
  ],
  "bytecode": "0x60806040526000600155600060035534801561001a57600080fd5b506148898061002a6000396000f3fe608060405234801561001057600080fd5b50600436106100a95760003560e01c8063d6a8833911610071578063d6a88339146108be578063d8ef430314610965578063e0c729ea14610983578063e71fafc914610a2a578063edafa08e14610ad1578063fad301c414610b78576100a9565b80630949abd1146100ae5780634bfd4f3b1461062257806351f32956146106c95780635dc60acc14610770578063b1789d6014610817575b600080fd5b61062060048036036101208110156100c557600080fd5b81019080803590602001906401000000008111156100e257600080fd5b8201836020820111156100f457600080fd5b8035906020019184600183028401116401000000008311171561011657600080fd5b91908080601f016020809104026020016040519081016040528093929190818152602001838380828437600081840152601f19601f8201169050808301925050505050505091929192908035906020019064010000000081111561017957600080fd5b82018360208201111561018b57600080fd5b803590602001918460018302840111640100000000831117156101ad57600080fd5b91908080601f016020809104026020016040519081016040528093929190818152602001838380828437600081840152601f19601f8201169050808301925050505050505091929192908035906020019064010000000081111561021057600080fd5b82018360208201111561022257600080fd5b8035906020019184600183028401116401000000008311171561024457600080fd5b91908080601f016020809104026020016040519081016040528093929190818152602001838380828437600081840152601f19601f820116905080830192505050505050509192919290803590602001906401000000008111156102a757600080fd5b8201836020820111156102b957600080fd5b803590602001918460018302840111640100000000831117156102db57600080fd5b91908080601f016020809104026020016040519081016040528093929190818152602001838380828437600081840152601f19601f8201169050808301925050505050505091929192908035906020019064010000000081111561033e57600080fd5b82018360208201111561035057600080fd5b8035906020019184600183028401116401000000008311171561037257600080fd5b91908080601f016020809104026020016040519081016040528093929190818152602001838380828437600081840152601f19601f820116905080830192505050505050509192919290803590602001906401000000008111156103d557600080fd5b8201836020820111156103e757600080fd5b8035906020019184600183028401116401000000008311171561040957600080fd5b91908080601f016020809104026020016040519081016040528093929190818152602001838380828437600081840152601f19601f8201169050808301925050505050505091929192908035906020019064010000000081111561046c57600080fd5b82018360208201111561047e57600080fd5b803590602001918460018302840111640100000000831117156104a057600080fd5b91908080601f016020809104026020016040519081016040528093929190818152602001838380828437600081840152601f19601f8201169050808301925050505050505091929192908035906020019064010000000081111561050357600080fd5b82018360208201111561051557600080fd5b8035906020019184600183028401116401000000008311171561053757600080fd5b91908080601f016020809104026020016040519081016040528093929190818152602001838380828437600081840152601f19601f8201169050808301925050505050505091929192908035906020019064010000000081111561059a57600080fd5b8201836020820111156105ac57600080fd5b803590602001918460018302840111640100000000831117156105ce57600080fd5b91908080601f016020809104026020016040519081016040528093929190818152602001838380828437600081840152601f19601f820116905080830192505050505050509192919290505050610c1f565b005b61064e6004803603602081101561063857600080fd5b8101908080359060200190929190505050610ea8565b6040518080602001828103825283818151815260200191508051906020019080838360005b8381101561068e578082015181840152602081019050610673565b50505050905090810190601f1680156106bb5780820380516001836020036101000a031916815260200191505b509250505060405180910390f35b6106f5600480360360208110156106df57600080fd5b81019080803590602001909291905050506114ef565b6040518080602001828103825283818151815260200191508051906020019080838360005b8381101561073557808201518184015260208101905061071a565b50505050905090810190601f1680156107625780820380516001836020036101000a031916815260200191505b509250505060405180910390f35b61079c6004803603602081101561078657600080fd5b8101908080359060200190929190505050611b36565b6040518080602001828103825283818151815260200191508051906020019080838360005b838110156107dc5780820151818401526020810190506107c1565b50505050905090810190601f1680156108095780820380516001836020036101000a031916815260200191505b509250505060405180910390f35b6108436004803603602081101561082d57600080fd5b810190808035906020019092919050505061217d565b6040518080602001828103825283818151815260200191508051906020019080838360005b83811015610883578082015181840152602081019050610868565b50505050905090810190601f1680156108b05780820380516001836020036101000a031916815260200191505b509250505060405180910390f35b6108ea600480360360208110156108d457600080fd5b81019080803590602001909291905050506127c4565b6040518080602001828103825283818151815260200191508051906020019080838360005b8381101561092a57808201518184015260208101905061090f565b50505050905090810190601f1680156109575780820380516001836020036101000a031916815260200191505b509250505060405180910390f35b61096d612e0b565b6040518082815260200191505060405180910390f35b6109af6004803603602081101561099957600080fd5b8101908080359060200190929190505050612e15565b6040518080602001828103825283818151815260200191508051906020019080838360005b838110156109ef5780820151818401526020810190506109d4565b50505050905090810190601f168015610a1c5780820380516001836020036101000a031916815260200191505b509250505060405180910390f35b610a5660048036036020811015610a4057600080fd5b810190808035906020019092919050505061345c565b6040518080602001828103825283818151815260200191508051906020019080838360005b83811015610a96578082015181840152602081019050610a7b565b50505050905090810190601f168015610ac35780820380516001836020036101000a031916815260200191505b509250505060405180910390f35b610afd60048036036020811015610ae757600080fd5b8101908080359060200190929190505050613aa3565b6040518080602001828103825283818151815260200191508051906020019080838360005b83811015610b3d578082015181840152602081019050610b22565b50505050905090810190601f168015610b6a5780820380516001836020036101000a031916815260200191505b509250505060405180910390f35b610ba460048036036020811015610b8e57600080fd5b81019080803590602001909291905050506140ea565b6040518080602001828103825283818151815260200191508051906020019080838360005b83811015610be4578082015181840152602081019050610bc9565b50505050905090810190601f168015610c115780820380516001836020036101000a031916815260200191505b509250505060405180910390f35b336000806101000a81548173ffffffffffffffffffffffffffffffffffffffff021916908373ffffffffffffffffffffffffffffffffffffffff16021790555060006003541315610c7d576001600081548092919060010191905055505b610c8561472d565b60405180604001604052808b81526020018a8152509050610ca461472d565b60405180604001604052808a8152602001898152509050610cc361472d565b6040518060400160405280898152602001888152509050610ce261472d565b6040518060400160405280888152602001878152509050610d01614747565b6040518060c001604052808681526020018581526020018481526020018381526020016001548152602001878152509050806002600060015481526020019081526020016000206000820151816000016000820151816000019080519060200190610d6d929190614795565b506020820151816001019080519060200190610d8a929190614795565b5050506020820151816002016000820151816000019080519060200190610db2929190614795565b506020820151816001019080519060200190610dcf929190614795565b5050506040820151816004016000820151816000019080519060200190610df7929190614795565b506020820151816001019080519060200190610e14929190614795565b5050506060820151816006016000820151816000019080519060200190610e3c929190614795565b506020820151816001019080519060200190610e59929190614795565b5050506080820151816008015560a0820151816009019080519060200190610e82929190614795565b509050506003600081548092919060010191905055505050505050505050505050505050565b6060610eb2614747565b600260008481526020019081526020016000206040518060c001604052908160008201604051806040016040529081600082018054600181600116156101000203166002900480601f016020809104026020016040519081016040528092919081815260200182805460018160011615610100020316600290048015610f795780601f10610f4e57610100808354040283529160200191610f79565b820191906000526020600020905b815481529060010190602001808311610f5c57829003601f168201915b50505050508152602001600182018054600181600116156101000203166002900480601f01602080910402602001604051908101604052809291908181526020018280546001816001161561010002031660029004801561101b5780601f10610ff05761010080835404028352916020019161101b565b820191906000526020600020905b815481529060010190602001808311610ffe57829003601f168201915b505050505081525050815260200160028201604051806040016040529081600082018054600181600116156101000203166002900480601f0160208091040260200160405190810160405280929190818152602001828054600181600116156101000203166002900480156110d15780601f106110a6576101008083540402835291602001916110d1565b820191906000526020600020905b8154815290600101906020018083116110b457829003601f168201915b50505050508152602001600182018054600181600116156101000203166002900480601f0160208091040260200160405190810160405280929190818152602001828054600181600116156101000203166002900480156111735780601f1061114857610100808354040283529160200191611173565b820191906000526020600020905b81548152906001019060200180831161115657829003601f168201915b505050505081525050815260200160048201604051806040016040529081600082018054600181600116156101000203166002900480601f0160208091040260200160405190810160405280929190818152602001828054600181600116156101000203166002900480156112295780601f106111fe57610100808354040283529160200191611229565b820191906000526020600020905b81548152906001019060200180831161120c57829003601f168201915b50505050508152602001600182018054600181600116156101000203166002900480601f0160208091040260200160405190810160405280929190818152602001828054600181600116156101000203166002900480156112cb5780601f106112a0576101008083540402835291602001916112cb565b820191906000526020600020905b8154815290600101906020018083116112ae57829003601f168201915b505050505081525050815260200160068201604051806040016040529081600082018054600181600116156101000203166002900480601f0160208091040260200160405190810160405280929190818152602001828054600181600116156101000203166002900480156113815780601f1061135657610100808354040283529160200191611381565b820191906000526020600020905b81548152906001019060200180831161136457829003601f168201915b50505050508152602001600182018054600181600116156101000203166002900480601f0160208091040260200160405190810160405280929190818152602001828054600181600116156101000203166002900480156114235780601f106113f857610100808354040283529160200191611423565b820191906000526020600020905b81548152906001019060200180831161140657829003601f168201915b505050505081525050815260200160088201548152602001600982018054600181600116156101000203166002900480601f0160208091040260200160405190810160405280929190818152602001828054600181600116156101000203166002900480156114d35780601f106114a8576101008083540402835291602001916114d3565b820191906000526020600020905b8154815290600101906020018083116114b657829003601f168201915b5050505050815250509050806040015160000151915050919050565b60606114f9614747565b600260008481526020019081526020016000206040518060c001604052908160008201604051806040016040529081600082018054600181600116156101000203166002900480601f0160208091040260200160405190810160405280929190818152602001828054600181600116156101000203166002900480156115c05780601f10611595576101008083540402835291602001916115c0565b820191906000526020600020905b8154815290600101906020018083116115a357829003601f168201915b50505050508152602001600182018054600181600116156101000203166002900480601f0160208091040260200160405190810160405280929190818152602001828054600181600116156101000203166002900480156116625780601f1061163757610100808354040283529160200191611662565b820191906000526020600020905b81548152906001019060200180831161164557829003601f168201915b505050505081525050815260200160028201604051806040016040529081600082018054600181600116156101000203166002900480601f0160208091040260200160405190810160405280929190818152602001828054600181600116156101000203166002900480156117185780601f106116ed57610100808354040283529160200191611718565b820191906000526020600020905b8154815290600101906020018083116116fb57829003601f168201915b50505050508152602001600182018054600181600116156101000203166002900480601f0160208091040260200160405190810160405280929190818152602001828054600181600116156101000203166002900480156117ba5780601f1061178f576101008083540402835291602001916117ba565b820191906000526020600020905b81548152906001019060200180831161179d57829003601f168201915b505050505081525050815260200160048201604051806040016040529081600082018054600181600116156101000203166002900480601f0160208091040260200160405190810160405280929190818152602001828054600181600116156101000203166002900480156118705780601f1061184557610100808354040283529160200191611870565b820191906000526020600020905b81548152906001019060200180831161185357829003601f168201915b50505050508152602001600182018054600181600116156101000203166002900480601f0160208091040260200160405190810160405280929190818152602001828054600181600116156101000203166002900480156119125780601f106118e757610100808354040283529160200191611912565b820191906000526020600020905b8154815290600101906020018083116118f557829003601f168201915b505050505081525050815260200160068201604051806040016040529081600082018054600181600116156101000203166002900480601f0160208091040260200160405190810160405280929190818152602001828054600181600116156101000203166002900480156119c85780601f1061199d576101008083540402835291602001916119c8565b820191906000526020600020905b8154815290600101906020018083116119ab57829003601f168201915b50505050508152602001600182018054600181600116156101000203166002900480601f016020809104026020016040519081016040528092919081815260200182805460018160011615610100020316600290048015611a6a5780601f10611a3f57610100808354040283529160200191611a6a565b820191906000526020600020905b815481529060010190602001808311611a4d57829003601f168201915b505050505081525050815260200160088201548152602001600982018054600181600116156101000203166002900480601f016020809104026020016040519081016040528092919081815260200182805460018160011615610100020316600290048015611b1a5780601f10611aef57610100808354040283529160200191611b1a565b820191906000526020600020905b815481529060010190602001808311611afd57829003601f168201915b5050505050815250509050806020015160200151915050919050565b6060611b40614747565b600260008481526020019081526020016000206040518060c001604052908160008201604051806040016040529081600082018054600181600116156101000203166002900480601f016020809104026020016040519081016040528092919081815260200182805460018160011615610100020316600290048015611c075780601f10611bdc57610100808354040283529160200191611c07565b820191906000526020600020905b815481529060010190602001808311611bea57829003601f168201915b50505050508152602001600182018054600181600116156101000203166002900480601f016020809104026020016040519081016040528092919081815260200182805460018160011615610100020316600290048015611ca95780601f10611c7e57610100808354040283529160200191611ca9565b820191906000526020600020905b815481529060010190602001808311611c8c57829003601f168201915b505050505081525050815260200160028201604051806040016040529081600082018054600181600116156101000203166002900480601f016020809104026020016040519081016040528092919081815260200182805460018160011615610100020316600290048015611d5f5780601f10611d3457610100808354040283529160200191611d5f565b820191906000526020600020905b815481529060010190602001808311611d4257829003601f168201915b50505050508152602001600182018054600181600116156101000203166002900480601f016020809104026020016040519081016040528092919081815260200182805460018160011615610100020316600290048015611e015780601f10611dd657610100808354040283529160200191611e01565b820191906000526020600020905b815481529060010190602001808311611de457829003601f168201915b505050505081525050815260200160048201604051806040016040529081600082018054600181600116156101000203166002900480601f016020809104026020016040519081016040528092919081815260200182805460018160011615610100020316600290048015611eb75780601f10611e8c57610100808354040283529160200191611eb7565b820191906000526020600020905b815481529060010190602001808311611e9a57829003601f168201915b50505050508152602001600182018054600181600116156101000203166002900480601f016020809104026020016040519081016040528092919081815260200182805460018160011615610100020316600290048015611f595780601f10611f2e57610100808354040283529160200191611f59565b820191906000526020600020905b815481529060010190602001808311611f3c57829003601f168201915b505050505081525050815260200160068201604051806040016040529081600082018054600181600116156101000203166002900480601f01602080910402602001604051908101604052809291908181526020018280546001816001161561010002031660029004801561200f5780601f10611fe45761010080835404028352916020019161200f565b820191906000526020600020905b815481529060010190602001808311611ff257829003601f168201915b50505050508152602001600182018054600181600116156101000203166002900480601f0160208091040260200160405190810160405280929190818152602001828054600181600116156101000203166002900480156120b15780601f10612086576101008083540402835291602001916120b1565b820191906000526020600020905b81548152906001019060200180831161209457829003601f168201915b505050505081525050815260200160088201548152602001600982018054600181600116156101000203166002900480601f0160208091040260200160405190810160405280929190818152602001828054600181600116156101000203166002900480156121615780601f1061213657610100808354040283529160200191612161565b820191906000526020600020905b81548152906001019060200180831161214457829003601f168201915b5050505050815250509050806020015160000151915050919050565b6060612187614747565b600260008481526020019081526020016000206040518060c001604052908160008201604051806040016040529081600082018054600181600116156101000203166002900480601f01602080910402602001604051908101604052809291908181526020018280546001816001161561010002031660029004801561224e5780601f106122235761010080835404028352916020019161224e565b820191906000526020600020905b81548152906001019060200180831161223157829003601f168201915b50505050508152602001600182018054600181600116156101000203166002900480601f0160208091040260200160405190810160405280929190818152602001828054600181600116156101000203166002900480156122f05780601f106122c5576101008083540402835291602001916122f0565b820191906000526020600020905b8154815290600101906020018083116122d357829003601f168201915b505050505081525050815260200160028201604051806040016040529081600082018054600181600116156101000203166002900480601f0160208091040260200160405190810160405280929190818152602001828054600181600116156101000203166002900480156123a65780601f1061237b576101008083540402835291602001916123a6565b820191906000526020600020905b81548152906001019060200180831161238957829003601f168201915b50505050508152602001600182018054600181600116156101000203166002900480601f0160208091040260200160405190810160405280929190818152602001828054600181600116156101000203166002900480156124485780601f1061241d57610100808354040283529160200191612448565b820191906000526020600020905b81548152906001019060200180831161242b57829003601f168201915b505050505081525050815260200160048201604051806040016040529081600082018054600181600116156101000203166002900480601f0160208091040260200160405190810160405280929190818152602001828054600181600116156101000203166002900480156124fe5780601f106124d3576101008083540402835291602001916124fe565b820191906000526020600020905b8154815290600101906020018083116124e157829003601f168201915b50505050508152602001600182018054600181600116156101000203166002900480601f0160208091040260200160405190810160405280929190818152602001828054600181600116156101000203166002900480156125a05780601f10612575576101008083540402835291602001916125a0565b820191906000526020600020905b81548152906001019060200180831161258357829003601f168201915b505050505081525050815260200160068201604051806040016040529081600082018054600181600116156101000203166002900480601f0160208091040260200160405190810160405280929190818152602001828054600181600116156101000203166002900480156126565780601f1061262b57610100808354040283529160200191612656565b820191906000526020600020905b81548152906001019060200180831161263957829003601f168201915b50505050508152602001600182018054600181600116156101000203166002900480601f0160208091040260200160405190810160405280929190818152602001828054600181600116156101000203166002900480156126f85780601f106126cd576101008083540402835291602001916126f8565b820191906000526020600020905b8154815290600101906020018083116126db57829003601f168201915b505050505081525050815260200160088201548152602001600982018054600181600116156101000203166002900480601f0160208091040260200160405190810160405280929190818152602001828054600181600116156101000203166002900480156127a85780601f1061277d576101008083540402835291602001916127a8565b820191906000526020600020905b81548152906001019060200180831161278b57829003601f168201915b5050505050815250509050806060015160200151915050919050565b60606127ce614747565b600260008481526020019081526020016000206040518060c001604052908160008201604051806040016040529081600082018054600181600116156101000203166002900480601f0160208091040260200160405190810160405280929190818152602001828054600181600116156101000203166002900480156128955780601f1061286a57610100808354040283529160200191612895565b820191906000526020600020905b81548152906001019060200180831161287857829003601f168201915b50505050508152602001600182018054600181600116156101000203166002900480601f0160208091040260200160405190810160405280929190818152602001828054600181600116156101000203166002900480156129375780601f1061290c57610100808354040283529160200191612937565b820191906000526020600020905b81548152906001019060200180831161291a57829003601f168201915b505050505081525050815260200160028201604051806040016040529081600082018054600181600116156101000203166002900480601f0160208091040260200160405190810160405280929190818152602001828054600181600116156101000203166002900480156129ed5780601f106129c2576101008083540402835291602001916129ed565b820191906000526020600020905b8154815290600101906020018083116129d057829003601f168201915b50505050508152602001600182018054600181600116156101000203166002900480601f016020809104026020016040519081016040528092919081815260200182805460018160011615610100020316600290048015612a8f5780601f10612a6457610100808354040283529160200191612a8f565b820191906000526020600020905b815481529060010190602001808311612a7257829003601f168201915b505050505081525050815260200160048201604051806040016040529081600082018054600181600116156101000203166002900480601f016020809104026020016040519081016040528092919081815260200182805460018160011615610100020316600290048015612b455780601f10612b1a57610100808354040283529160200191612b45565b820191906000526020600020905b815481529060010190602001808311612b2857829003601f168201915b50505050508152602001600182018054600181600116156101000203166002900480601f016020809104026020016040519081016040528092919081815260200182805460018160011615610100020316600290048015612be75780601f10612bbc57610100808354040283529160200191612be7565b820191906000526020600020905b815481529060010190602001808311612bca57829003601f168201915b505050505081525050815260200160068201604051806040016040529081600082018054600181600116156101000203166002900480601f016020809104026020016040519081016040528092919081815260200182805460018160011615610100020316600290048015612c9d5780601f10612c7257610100808354040283529160200191612c9d565b820191906000526020600020905b815481529060010190602001808311612c8057829003601f168201915b50505050508152602001600182018054600181600116156101000203166002900480601f016020809104026020016040519081016040528092919081815260200182805460018160011615610100020316600290048015612d3f5780601f10612d1457610100808354040283529160200191612d3f565b820191906000526020600020905b815481529060010190602001808311612d2257829003601f168201915b505050505081525050815260200160088201548152602001600982018054600181600116156101000203166002900480601f016020809104026020016040519081016040528092919081815260200182805460018160011615610100020316600290048015612def5780601f10612dc457610100808354040283529160200191612def565b820191906000526020600020905b815481529060010190602001808311612dd257829003601f168201915b5050505050815250509050806060015160000151915050919050565b6000600154905090565b6060612e1f614747565b600260008481526020019081526020016000206040518060c001604052908160008201604051806040016040529081600082018054600181600116156101000203166002900480601f016020809104026020016040519081016040528092919081815260200182805460018160011615610100020316600290048015612ee65780601f10612ebb57610100808354040283529160200191612ee6565b820191906000526020600020905b815481529060010190602001808311612ec957829003601f168201915b50505050508152602001600182018054600181600116156101000203166002900480601f016020809104026020016040519081016040528092919081815260200182805460018160011615610100020316600290048015612f885780601f10612f5d57610100808354040283529160200191612f88565b820191906000526020600020905b815481529060010190602001808311612f6b57829003601f168201915b505050505081525050815260200160028201604051806040016040529081600082018054600181600116156101000203166002900480601f01602080910402602001604051908101604052809291908181526020018280546001816001161561010002031660029004801561303e5780601f106130135761010080835404028352916020019161303e565b820191906000526020600020905b81548152906001019060200180831161302157829003601f168201915b50505050508152602001600182018054600181600116156101000203166002900480601f0160208091040260200160405190810160405280929190818152602001828054600181600116156101000203166002900480156130e05780601f106130b5576101008083540402835291602001916130e0565b820191906000526020600020905b8154815290600101906020018083116130c357829003601f168201915b505050505081525050815260200160048201604051806040016040529081600082018054600181600116156101000203166002900480601f0160208091040260200160405190810160405280929190818152602001828054600181600116156101000203166002900480156131965780601f1061316b57610100808354040283529160200191613196565b820191906000526020600020905b81548152906001019060200180831161317957829003601f168201915b50505050508152602001600182018054600181600116156101000203166002900480601f0160208091040260200160405190810160405280929190818152602001828054600181600116156101000203166002900480156132385780601f1061320d57610100808354040283529160200191613238565b820191906000526020600020905b81548152906001019060200180831161321b57829003601f168201915b505050505081525050815260200160068201604051806040016040529081600082018054600181600116156101000203166002900480601f0160208091040260200160405190810160405280929190818152602001828054600181600116156101000203166002900480156132ee5780601f106132c3576101008083540402835291602001916132ee565b820191906000526020600020905b8154815290600101906020018083116132d157829003601f168201915b50505050508152602001600182018054600181600116156101000203166002900480601f0160208091040260200160405190810160405280929190818152602001828054600181600116156101000203166002900480156133905780601f1061336557610100808354040283529160200191613390565b820191906000526020600020905b81548152906001019060200180831161337357829003601f168201915b505050505081525050815260200160088201548152602001600982018054600181600116156101000203166002900480601f0160208091040260200160405190810160405280929190818152602001828054600181600116156101000203166002900480156134405780601f1061341557610100808354040283529160200191613440565b820191906000526020600020905b81548152906001019060200180831161342357829003601f168201915b5050505050815250509050806040015160200151915050919050565b6060613466614747565b600260008481526020019081526020016000206040518060c001604052908160008201604051806040016040529081600082018054600181600116156101000203166002900480601f01602080910402602001604051908101604052809291908181526020018280546001816001161561010002031660029004801561352d5780601f106135025761010080835404028352916020019161352d565b820191906000526020600020905b81548152906001019060200180831161351057829003601f168201915b50505050508152602001600182018054600181600116156101000203166002900480601f0160208091040260200160405190810160405280929190818152602001828054600181600116156101000203166002900480156135cf5780601f106135a4576101008083540402835291602001916135cf565b820191906000526020600020905b8154815290600101906020018083116135b257829003601f168201915b505050505081525050815260200160028201604051806040016040529081600082018054600181600116156101000203166002900480601f0160208091040260200160405190810160405280929190818152602001828054600181600116156101000203166002900480156136855780601f1061365a57610100808354040283529160200191613685565b820191906000526020600020905b81548152906001019060200180831161366857829003601f168201915b50505050508152602001600182018054600181600116156101000203166002900480601f0160208091040260200160405190810160405280929190818152602001828054600181600116156101000203166002900480156137275780601f106136fc57610100808354040283529160200191613727565b820191906000526020600020905b81548152906001019060200180831161370a57829003601f168201915b505050505081525050815260200160048201604051806040016040529081600082018054600181600116156101000203166002900480601f0160208091040260200160405190810160405280929190818152602001828054600181600116156101000203166002900480156137dd5780601f106137b2576101008083540402835291602001916137dd565b820191906000526020600020905b8154815290600101906020018083116137c057829003601f168201915b50505050508152602001600182018054600181600116156101000203166002900480601f01602080910402602001604051908101604052809291908181526020018280546001816001161561010002031660029004801561387f5780601f106138545761010080835404028352916020019161387f565b820191906000526020600020905b81548152906001019060200180831161386257829003601f168201915b505050505081525050815260200160068201604051806040016040529081600082018054600181600116156101000203166002900480601f0160208091040260200160405190810160405280929190818152602001828054600181600116156101000203166002900480156139355780601f1061390a57610100808354040283529160200191613935565b820191906000526020600020905b81548152906001019060200180831161391857829003601f168201915b50505050508152602001600182018054600181600116156101000203166002900480601f0160208091040260200160405190810160405280929190818152602001828054600181600116156101000203166002900480156139d75780601f106139ac576101008083540402835291602001916139d7565b820191906000526020600020905b8154815290600101906020018083116139ba57829003601f168201915b505050505081525050815260200160088201548152602001600982018054600181600116156101000203166002900480601f016020809104026020016040519081016040528092919081815260200182805460018160011615610100020316600290048015613a875780601f10613a5c57610100808354040283529160200191613a87565b820191906000526020600020905b815481529060010190602001808311613a6a57829003601f168201915b5050505050815250509050806000015160000151915050919050565b6060613aad614747565b600260008481526020019081526020016000206040518060c001604052908160008201604051806040016040529081600082018054600181600116156101000203166002900480601f016020809104026020016040519081016040528092919081815260200182805460018160011615610100020316600290048015613b745780601f10613b4957610100808354040283529160200191613b74565b820191906000526020600020905b815481529060010190602001808311613b5757829003601f168201915b50505050508152602001600182018054600181600116156101000203166002900480601f016020809104026020016040519081016040528092919081815260200182805460018160011615610100020316600290048015613c165780601f10613beb57610100808354040283529160200191613c16565b820191906000526020600020905b815481529060010190602001808311613bf957829003601f168201915b505050505081525050815260200160028201604051806040016040529081600082018054600181600116156101000203166002900480601f016020809104026020016040519081016040528092919081815260200182805460018160011615610100020316600290048015613ccc5780601f10613ca157610100808354040283529160200191613ccc565b820191906000526020600020905b815481529060010190602001808311613caf57829003601f168201915b50505050508152602001600182018054600181600116156101000203166002900480601f016020809104026020016040519081016040528092919081815260200182805460018160011615610100020316600290048015613d6e5780601f10613d4357610100808354040283529160200191613d6e565b820191906000526020600020905b815481529060010190602001808311613d5157829003601f168201915b505050505081525050815260200160048201604051806040016040529081600082018054600181600116156101000203166002900480601f016020809104026020016040519081016040528092919081815260200182805460018160011615610100020316600290048015613e245780601f10613df957610100808354040283529160200191613e24565b820191906000526020600020905b815481529060010190602001808311613e0757829003601f168201915b50505050508152602001600182018054600181600116156101000203166002900480601f016020809104026020016040519081016040528092919081815260200182805460018160011615610100020316600290048015613ec65780601f10613e9b57610100808354040283529160200191613ec6565b820191906000526020600020905b815481529060010190602001808311613ea957829003601f168201915b505050505081525050815260200160068201604051806040016040529081600082018054600181600116156101000203166002900480601f016020809104026020016040519081016040528092919081815260200182805460018160011615610100020316600290048015613f7c5780601f10613f5157610100808354040283529160200191613f7c565b820191906000526020600020905b815481529060010190602001808311613f5f57829003601f168201915b50505050508152602001600182018054600181600116156101000203166002900480601f01602080910402602001604051908101604052809291908181526020018280546001816001161561010002031660029004801561401e5780601f10613ff35761010080835404028352916020019161401e565b820191906000526020600020905b81548152906001019060200180831161400157829003601f168201915b505050505081525050815260200160088201548152602001600982018054600181600116156101000203166002900480601f0160208091040260200160405190810160405280929190818152602001828054600181600116156101000203166002900480156140ce5780601f106140a3576101008083540402835291602001916140ce565b820191906000526020600020905b8154815290600101906020018083116140b157829003601f168201915b5050505050815250509050806000015160200151915050919050565b60606140f4614747565b600260008481526020019081526020016000206040518060c001604052908160008201604051806040016040529081600082018054600181600116156101000203166002900480601f0160208091040260200160405190810160405280929190818152602001828054600181600116156101000203166002900480156141bb5780601f10614190576101008083540402835291602001916141bb565b820191906000526020600020905b81548152906001019060200180831161419e57829003601f168201915b50505050508152602001600182018054600181600116156101000203166002900480601f01602080910402602001604051908101604052809291908181526020018280546001816001161561010002031660029004801561425d5780601f106142325761010080835404028352916020019161425d565b820191906000526020600020905b81548152906001019060200180831161424057829003601f168201915b505050505081525050815260200160028201604051806040016040529081600082018054600181600116156101000203166002900480601f0160208091040260200160405190810160405280929190818152602001828054600181600116156101000203166002900480156143135780601f106142e857610100808354040283529160200191614313565b820191906000526020600020905b8154815290600101906020018083116142f657829003601f168201915b50505050508152602001600182018054600181600116156101000203166002900480601f0160208091040260200160405190810160405280929190818152602001828054600181600116156101000203166002900480156143b55780601f1061438a576101008083540402835291602001916143b5565b820191906000526020600020905b81548152906001019060200180831161439857829003601f168201915b505050505081525050815260200160048201604051806040016040529081600082018054600181600116156101000203166002900480601f01602080910402602001604051908101604052809291908181526020018280546001816001161561010002031660029004801561446b5780601f106144405761010080835404028352916020019161446b565b820191906000526020600020905b81548152906001019060200180831161444e57829003601f168201915b50505050508152602001600182018054600181600116156101000203166002900480601f01602080910402602001604051908101604052809291908181526020018280546001816001161561010002031660029004801561450d5780601f106144e25761010080835404028352916020019161450d565b820191906000526020600020905b8154815290600101906020018083116144f057829003601f168201915b505050505081525050815260200160068201604051806040016040529081600082018054600181600116156101000203166002900480601f0160208091040260200160405190810160405280929190818152602001828054600181600116156101000203166002900480156145c35780601f10614598576101008083540402835291602001916145c3565b820191906000526020600020905b8154815290600101906020018083116145a657829003601f168201915b50505050508152602001600182018054600181600116156101000203166002900480601f0160208091040260200160405190810160405280929190818152602001828054600181600116156101000203166002900480156146655780601f1061463a57610100808354040283529160200191614665565b820191906000526020600020905b81548152906001019060200180831161464857829003601f168201915b505050505081525050815260200160088201548152602001600982018054600181600116156101000203166002900480601f0160208091040260200160405190810160405280929190818152602001828054600181600116156101000203166002900480156147155780601f106146ea57610100808354040283529160200191614715565b820191906000526020600020905b8154815290600101906020018083116146f857829003601f168201915b50505050508152505090508060a00151915050919050565b604051806040016040528060608152602001606081525090565b6040518060c0016040528061475a614815565b8152602001614767614815565b8152602001614774614815565b8152602001614781614815565b815260200160008152602001606081525090565b828054600181600116156101000203166002900490600052602060002090601f016020900481019282601f106147d657805160ff1916838001178555614804565b82800160010185558215614804579182015b828111156148035782518255916020019190600101906147e8565b5b509050614811919061482f565b5090565b604051806040016040528060608152602001606081525090565b61485191905b8082111561484d576000816000905550600101614835565b5090565b9056fea265627a7a72315820058e0ee75adf9772361a5338839ae391b26951835b172095aad65cc35e7ee6fd64736f6c63430005100032",
  "source": "// SPDX-License-Identifier: MIT\r\npragma solidity >=0.4.21 <0.7.1;\r\ncontract FamilyTree{\r\n    address owner;\r\n    int256 familynumber=0;\r\n    mapping (int256 => Family) Familys;\r\n    int256 counter=0;\r\n    struct person{\r\n        string firstname;\r\n        string lastname;\r\n    }\r\n    struct Family{\r\n        person father;\r\n        person mother;\r\n        person child1;\r\n        person child2;\r\n        int256 familyno;\r\n        string familyname;\r\n    }\r\n\r\n    function create_family(string memory ffirstname, string  memory flastname,string memory mfirstname,string memory mlastname,string memory c1firstname, string  memory c1lastname,string memory c2firstname,string memory c2lastname,string memory  Famliyname)public {\r\n    owner = msg.sender;\r\n    if(counter>0)\r\n    {\r\n        familynumber++;\r\n    }\r\n    person memory Father = person(ffirstname,flastname);\r\n    person memory Mother = person(mfirstname,mlastname);\r\n    person memory child1 = person(c1firstname,c1lastname);\r\n    person memory child2 = person(c2firstname,c2lastname);\r\n    Family memory family = Family(Father,Mother,child1,child2,familynumber,Famliyname);\r\n    Familys[familynumber] = family;\r\n    counter++;\r\n    }\r\n    function get_Family_Number()public view returns(int256 familynum){\r\n      return familynumber;\r\n    }\r\n    function print_Father_First_Name(int256 familynum) public view returns(string memory firstname){\r\n      Family memory family = Familys[familynum];\r\n      return(family.father.firstname);\r\n    }\r\n    function print_Father_Last_Name(int256 familynum) public view returns(string memory lastname){\r\n      Family memory family = Familys[familynum];\r\n      return(family.father.lastname);\r\n    }\r\n    function print_Mother_First_Name(int256 familynum) public view returns(string memory firstname){\r\n      Family memory family = Familys[familynum];\r\n      return(family.mother.firstname);\r\n    }\r\n    function print_Mother_Last_Name(int256 familynum) public view returns(string memory lastname){\r\n      Family memory family = Familys[familynum];\r\n      return(family.mother.lastname);\r\n    }\r\n    function print_Child1_First_Name(int256 familynum) public view returns(string memory firstname){\r\n      Family memory family = Familys[familynum];\r\n      return(family.child1.firstname);\r\n    }\r\n    function print_Child1_Last_Name(int256 familynum) public view returns(string memory lastname){\r\n      Family memory family = Familys[familynum];\r\n      return(family.child1.lastname);\r\n    }\r\n    function print_Child2_First_Name(int256 familynum) public view returns(string memory firstname){\r\n      Family memory family = Familys[familynum];\r\n      return(family.child2.firstname);\r\n    }\r\n    function print_Child2_Last_Name(int256 familynum) public view returns(string memory lastname){\r\n      Family memory family = Familys[familynum];\r\n      return(family.child2.lastname);\r\n    }\r\n    function print_Family_Name(int256 familynum) public view returns(string memory firstname){\r\n      Family memory family = Familys[familynum];\r\n      return(family.familyname);\r\n    }\r\n}\r\n",
  "sourcePath": "C:/Users/Uaser/Desktop/block chain/family_tree-master/family_tree-master/contracts/FamilyTree.sol",
  "compiler": {
    "name": "solc",
    "version": "0.5.16+commit.9c3226ce.Emscripten.clang"
  },
  "schemaVersion": "3.2.3",
  "updatedAt": "2020-08-27T23:26:00.170Z",
  "networkType": "ethereum",
  "devdoc": {
    "methods": {}
  },
  "userdoc": {
    "methods": {}
  }
}